:020000040800F2
:10000000080F002049010008ED3A0008D734000825
:10001000E93A0008390D0008C94600080000000050
:10002000000000000000000000000000E53E0008A5
:100030003D0D000800000000E33C0008E73E00081A
:100040006301000863010008630100086301000800
:1000500063010008630100086301000863010008F0
:1000600063010008630100086301000863010008E0
:1000700063010008630100086301000863010008D0
:1000800063010008630100086301000863010008C0
:1000900063010008630100086301000863010008B0
:1000A00063010008630100086301000863010008A0
:1000B000593F0008693F0008793F000863010008C4
:1000C0006301000863010008630100086301000880
:1000D0006301000899460008A9460008B9460008CF
:1000E0006301000863010008630100086301000860
:1000F0006301000863010008630100086301000850
:10010000630100086301000863010008630100083F
:100110004143000851430008893F0008630100087B
:10012000630100086301000863010008630100081F
:10013000DFF810D000F06CFD00480047F5710008B2
:10014000AFF30080080F00200648804706480047AC
:10015000FEE7FEE7FEE7FEE7FEE7FEE7FEE7FEE777
:10016000FEE7FEE7553F000831010008202A04DBC6
:10017000203A21FA02F00021704721FA02F3D04020
:10018000C2F120029140084319467047D2B201E003
:1001900000F8012B491EFBD270470022F6E710B58C
:1001A00013460A4604461946FFF7F0FF204610BDE5
:1001B000421C10F8011B0029FBD1801A70472DE961
:1001C000F04791460F4680460446002614F8015B2E
:1001D0002DB100F0B5FB0068405DC007F6D12B2DB6
:1001E00002D02D2D18D0641E4A463946204600F014
:1001F000ABFB27B13968A14201D1C7F80080710576
:100200004FF002040BD54042002803DD04F0E4FA6D
:100210000460A007BDE8F08746F48066E4E70028A4
:10022000F8DA04F0D9FA04606FF00040F2E7F0B4B5
:1002300080EA0102D40F4200B2EB410F02D2024623
:10024000084611464A0042D0C30DDDB2C1F3C75281
:10025000AD1A202D35DAC1F3160141F4000204B1C4
:100260005242C5F1200602FA06F12A411044B3EBCE
:10027000D05F23D0C4B1012DA0EBC35009DCF0BC8A
:100280004FF0004202EAC352DBB200F5000000F07A
:10029000B3BB400000F1807000EBC350A0F1807050
:1002A00040EAD170490009E0490841EAC071A0EB79
:1002B000C35000F50000400800EBC350F0BC00F054
:1002C00092BB6142012202EB4101001BF6E7F0BC48
:1002D000704781F00041AAE780F00040A7E780EA7C
:1002E000010210B502F00043400022D04A001FD0A6
:1002F000010E01EB1261C0F35600C2F3560240F446
:10030000000042F40002A0FB022000047F39140424
:1003100000D0401C50EA124001D44000491EC2B235
:100320000C0604EBD010401C4008802A02D003E0E9
:10033000002010BD20F00100002900DA0020184341
:1003400010BD30B480EA010202F0004530F00042F6
:1003500021F0004013D090B1C30DD40DC2F31601AB
:10036000C0F31600E41A41F4000140F400027D34A9
:10037000914201D3641C00E04900002C02DA30BC39
:10038000002070474FF400000023914201D3891AE6
:10039000034340084FEA4101F7D151B1914202D1E4
:1003A0004FF0004105E002D24FF0010101E06FF093
:1003B000010103EBC450284430BC00F014BB2DE90C
:1003C000FE4F804681EA0300C00F0C46009021F0EA
:1003D000004123F00045B8EB0200A94105D2404698
:1003E000214690461C460B46024623F0004010432F
:1003F00047D0270DC7F30A00C3F30A510290401AF1
:10040000019040286BDAC3F3130040F4801B00987E
:10041000924620B10023D2EB030A63EB0B0B019849
:100420005946C0F14002504600F069FA06460D46B2
:1004300050465946019A00F071FA10EB08006141EC
:10044000002487EA115284EAE7731A4340D0009AE5
:1004500062B3019A012A4FEA075215DC001B61EBD7
:1004600002014FF0004202EA0752CDE90042001CAF
:1004700041F5801132462B4600F0FBFA03B0BDE88F
:10048000F08F40462146F9E7001B61EB0201001C9A
:1004900041F5801300185B412018A2F5001747EBC7
:1004A000030140EAD570B6196D4111E06D084FEABD
:1004B000360645EAC0754FEA0752001B61EB0201A0
:1004C000001C41F5801149084FEA300000195141E4
:1004D00032462B4603B0BDE8F04F00F0BBBA00989F
:1004E000012240000023D0EB020263EBE07300988E
:1004F00021464FEAE074B8EB000061EB0401E9E744
:1005000083F000435BE781F0004158E72DE9FE4F9F
:1005100081EA030404F0004421F0004100944FF00C
:10052000000B23F0004350EA01045ED052EA0304BA
:100530005BD0C3F30A54C1F30A552C44A4F2F3343C
:100540000194A0FB0254C1F3130141F48011C3F3E1
:10055000130343F4801301FB024400FB034E840A9F
:10056000970A44EA815447EA8357A4FB0768029537
:100570008D0A05FB07854FEA932C04FB0C542705D5
:10058000029D4FEA065847EA1637B5EB08056EEBB1
:10059000070C870E920E47EA811742EA8312A7FBE7
:1005A0000201B6EB0B0164EB00042B0D43EA0C33A4
:1005B0005E1844EB1C50DA465146E7FB0201C5F3D6
:1005C00013044FEA0B3343EA14534FEA0432019CFD
:1005D00043EA0603A4F10C040294009CCDE900B4A4
:1005E00000F047FA03B0BDE8F08F00200146F9E7BC
:1005F0002DE9F04D81EA030404F0004B21F00045A1
:1006000014464FF0000A23F0004150EA050220D0C2
:1006100054EA01021DD0C5F30A570246C5F313037D
:10062000C1F31300C1F30A5640F4801543F480135C
:10063000A7EB0608101BD64608F2FD3873EB050041
:1006400002D308F1010801E092185B41B8F1000FF4
:1006500003DA00200146BDE8F08D00204FF4801140
:10066000064684460EE0171B73EB050705D3121BE5
:1006700063EB050306434CEA010C49084FEA3000DE
:1006800092185B4150EA0107EDD152EA030012D003
:1006900082EA040083EA0501084305D0101BAB4140
:1006A00006D20122002306E000224FF0004302E0C0
:1006B0006FF0010253101AEB06004CEB085110EBDF
:1006C0000A0041EB0B01BDE8F04D00F0C3B9C10FCA
:1006D00080EAE0700844CA079623002100F08CB934
:1006E00096230022114600F087B90EB5C10F80EAAB
:1006F000E0700844CA07002140F233438DE80E0041
:100700000A460B4600F0B5F903B000BD0EB540F245
:10071000334102910021CDE900110A460B4600F059
:10072000A8F903B000BD00F0004220F00040C10D68
:10073000C0F3160040F400007F2901DA0020704762
:10074000962903DCC1F19601C84001E09639884042
:10075000002AF4D040427047C1F30A5210B5C1F3E9
:10076000130140F2FF3341F480119A4201DA002074
:1007700010BD40F233439A42A2F2334203DC5242AC
:10078000FFF7F4FC10BD904010BD00F0004230F0C7
:1007900000400AD0C10D01F56071C0F3160042EAB5
:1007A0000151C208400711437047002001467047BD
:1007B00030B5041E71F1000404DB4FF000444042E8
:1007C00064EB0101141E73F1000405DB1C464FF0BD
:1007D0000043524263EB04038B4208BF824230BDA8
:1007E00030B5041E71F1000404DB4FF000444042B8
:1007F00064EB0101141E73F1000405DB1C464FF08D
:100800000043524263EB0403994208BF904230BD5B
:1008100001F0004330B421F0004150EA010206D05B
:100820000A0DA2F56072C1F31301002A02DC30BC8C
:1008300000207047440F44EAC104C100E01830BCF6
:1008400000EBC25000F0CFB8002801DBC0F100403F
:10085000002901DBC1F1004181427047002801DB22
:10086000C0F10040002901DBC1F10041884270471E
:1008700030B50B46014600202022012409E021FA70
:1008800002F59D4205D303FA02F5491B04FA02F56D
:100890002844151EA2F10102F1DC30BD2DE9F05F04
:1008A0000546002092469B468846064681464024DF
:1008B0001BE02846414647462246FFF757FC534671
:1008C0005A46C01A914110D311461846224600F0EC
:1008D00016F82D1A67EB01084F4622460120002129
:1008E00000F00DF817EB00094E41201EA4F10104A1
:1008F000DFDC484631462A464346BDE8F09F202AC1
:1009000004DB203A00FA02F1002070479140C2F166
:10091000200320FA03F3194390407047202A06DB96
:10092000CB17203A41FA02F043EAE07306E041FABD
:1009300002F3D040C2F120029140084319467047AB
:1009400000487047848900082DE9F05F82460078EE
:10095000002715468B460AF10104B946302801D01C
:100960009DB113E014F8010B0127782803D0582813
:1009700001D045B10AE00DB1102D07D10027102597
:1009800014F8010B02E0082500E00A250026B04615
:100990000EE005FB080005FB06F1012701EB104600
:1009A0001FFA80F8B6F5803F00D3B94614F8010B62
:1009B000294600F03FF90028EBDABBF1000F05D023
:1009C0000FB1641E00E05446CBF80040B9F1000FAF
:1009D00006D003F001FF02210160C81EBDE8F09FB0
:1009E00048EA0640FAE70029A8BF7047401C4900C2
:1009F00008BF20F00100704710B4B0FA80FC00FA84
:100A00000CF050EA010404BF10BC704749B1CCF1AE
:100A1000200421FA04F411FA0CF118BF012121433A
:100A20000843A3EB0C01CB1D4FEA00614FEA1020F5
:100A300042BF002010BC704700EBC3501044002997
:100A4000A4BF10BC7047401C490008BF20F0010043
:100A500010BC704710B5141E73F1000408DA401C76
:100A600041F1000192185B411A4301D120F00100CD
:100A700010BD2DE9F04D92469B4611B1B1FA81F2BD
:100A800002E0B0FA80F220329046FFF738FF0446C9
:100A90000F4640EA0A0041EA0B0153465A46084312
:100AA00013D0114653EA010019D0C8F14002504654
:100AB000FFF75CFB05460E46504659464246FFF797
:100AC0001EFF084305D0012004E020463946BDE85A
:100AD000F08D0020054346EAE0762C4337430A9820
:100AE0006305E40AA0EB08000022FD0A44EA47542B
:100AF0000A3002D500200146E9E7010510196941D5
:100B0000DDE9084500196941BDE8F04DA2E770B57F
:100B100021F0004303430CD0C1F30A550024D5EB68
:100B2000040564EB0403D617AD1AB34102DB0020C1
:100B3000014670BD201841EB025170BD2DE9F04D0A
:100B400000231A461B1A8A4103DB00200146BDE838
:100B5000F08DC1F30A52C1F3130141F480154FF037
:100B6000000BD10702D100186D41521E0027044628
:100B700040F2FF11384601EB620A3E4680460246CB
:100B800000204FF48011FFF7F1FAC2197141BB1830
:100B900046EB0100B4EB030C75EB000C04D3E41A34
:100BA00065EB000517460E46241908F101006D415A
:100BB00080463428E3DDF91946EB0600091BA841FD
:100BC00003D24FF0FF32134601E0002213461BEB25
:100BD000070046EB0A51BDE8F04DFFF73BBFC1F3FC
:100BE0000A52C1F3130140F2FF3341F480119A42DB
:100BF00002DA00200146704740F233439A42A2F2E3
:100C0000334202DC5242FFF7B1BAFFF778BE000070
:100C1000064C074D06E0E06840F0010394E8070049
:100C200098471034AC42F6D3FFF786FA888900085B
:100C3000A88900083A2800D2303820F02002412A42
:100C400001D3A2F13700884201D34FF0FF30704743
:100C500070B58C1810F8015B15F0070301D110F87E
:100C6000013B2A1106D110F8012B03E010F8016BAB
:100C700001F8016B5B1EF9D12B0705D40023521E2E
:100C80000DD401F8013BFAE710F8013BCB1A921C96
:100C900003E013F8015B01F8015B521EF9D5A14294
:100CA000D8D3002070BD000010B5012212491348AE
:100CB00002F0A2FB01221249124802F09DFB012220
:100CC0001149124802F098FB02F008FC104801F0AC
:100CD00025F9104801F022F90F4801F01FF9002111
:100CE0000E4801F0A7FB0C210C4801F0A3FB0720E4
:100CF0000A490968086410BD080000203009002076
:100D000009000020A00800206F010020C009002079
:100D10001008002058080020800700203807002015
:100D2000002004E00021034A1154411CC8B21F28CE
:100D3000F8DB70471807002000BFFEE7704700EBA4
:100D4000C001C9004FF0E0225161002191610521ED
:100D5000116100BF4FF0E021096901F480310029E1
:100D6000F8D004214FF0E022116170472DE9FF47D0
:100D700006460F4615469846DDE90D9A0C9C002064
:100D800000900190029003908DF80060FD208DF896
:100D900001008DF8027028128DF80300E8B28DF87A
:100DA00004008DF80580200E8DF80600200C8DF8CB
:100DB0000700200A8DF80800E0B28DF809008DF8D0
:100DC0000A908DF80BA06B208DF80C000D21684661
:100DD00007F03EFBBDE8FF877FB505460C460020C7
:100DE00000900190029003908DF80050FE208DF845
:100DF000010098208DF802008DF803406B208DF8DB
:100E000004000521684607F023FB7FBD1FB504469B
:100E1000002000900190029003908DF80040FF2088
:100E20008DF8010066208DF802006B208DF803001C
:100E30000421684607F00CFB1FBD2DE9FF41054664
:100E40000F4614461E46DDF82880002000900190D1
:100E5000029003908DF80050F6208DF801008DF877
:100E6000027020128DF80300E0B28DF804008DF8B6
:100E700005608DF806806B208DF807000821684614
:100E800007F0E6FABDE8FF8172B600BFFEE7014653
:100E9000002291F82100022808D00420886300BFB6
:100EA000002081F8200000BF01207047086800681A
:100EB00020F00E000B6818600868006820F0010040
:100EC0000B68186091F8403001209840CB6B586057
:100ED000012081F8210000BF002081F8200000BF20
:100EE0001046E2E770B50446002594F82100022878
:100EF00003D00420A0630125C1E02068006820F031
:100F00000E00216808602068006820F00100216858
:100F100008605C492068884252D95A49783920686B
:100F2000884201D1012047E056496439206888424F
:100F300001D1102040E0534950392068884201D146
:100F4000801539E04F493C392068884201D180142E
:100F500032E04C4928392068884202D14FF4803071
:100F60002AE0484914392068884202D14FF48010A1
:100F700022E044492068884201D140041CE04249F3
:100F80002068884201D1012016E03F4914312068D1
:100F9000884201D110200FE03B4928312068884267
:100FA00001D1801508E038493C312068884201D1E0
:100FB000801401E04FF480303349091F086051E08C
:100FC000304978392068884201D1012047E02D4915
:100FD00064392068884201D1102040E02949503905
:100FE0002068884201D1801539E026493C392068C3
:100FF000884201D1801432E0224928392068884291
:1010000002D14FF480302AE01E491439206888420A
:1010100002D14FF4801022E01A492068884201D1A1
:1010200040041CE018492068884201D1012016E0E4
:10103000154914312068884201D110200FE012496F
:1010400028312068884201D1801508E00E493C31E2
:101050002068884201D1801401E04FF480300949B2
:1010600080394860012084F8210000BF002084F806
:10107000200000BF606B10B12046616B8847284696
:1010800070BD000080000240080402402DE9F847CE
:10109000024600239C467BE14FF0010808FA03F466
:1010A000D1F8008008EA0400A0427DD1DFF8F4A264
:1010B000D1F80480A8EB0A09D0453AD014DCB8F185
:1010C000030F50D009DCB8F1000F31D0B8F1010F97
:1010D0001CD0B8F1020F49D120E0B8F1110F18D09F
:1010E000B8F1120F42D11EE0B9F5881F25D006DCF9
:1010F000B9F5803F20D0B9F5801F37D11AE0B9F596
:10110000001F18D0B9F5041F30D117E0D1F80CC07A
:101110002DE0D1F80C8008F1040C28E0D1F80C8007
:1011200008F1080C23E0D1F80C8008F10C0C1EE04B
:1011300000BF00BF00BF00BF00BF00BFD1F80880E4
:10114000B8F1000F02D14FF0040C0BE0D1F8088089
:10115000B8F1010F03D14FF0080C146102E04FF019
:10116000080C546103E04FF0000C00E000BF00BF2A
:10117000FF2801D8904601E002F104084646FF2806
:1011800002D84FEA830803E0A3F108084FEA880871
:101190004746D6F800804FF00F0909FA07F928EA08
:1011A00009080CFA07F900E07AE048EA0908C6F8ED
:1011B0000080D1F8048008F08058B8F1805F6FD1CA
:1011C00000BFDFF8E481D8F8188048F00108DFF8A4
:1011D000D891C9F81880C846D8F8188008F00108D6
:1011E000CDF8008000BF00BF4FEAB9384FEA93093D
:1011F00058F829504FEA83784FEA18794FF00F08D2
:1012000008FA09F825EA0805DFF8A081424502D16D
:101210004FF0000824E0DFF89881424502D14FF0FA
:1012200001081DE0DFF88C81424502D14FF0020831
:1012300016E0DFF88481424502D14FF003080FE049
:10124000DFF87881424502D14FF0040808E0DFF86A
:101250007081424502D14FF0050801E04FF00608C9
:101260004FEA83794FEA197908FA09F848EA05053F
:10127000DFF850814FEA930948F82950D1F80480EB
:1012800008F48018B8F5801F0BD1DFF83C81D8F83E
:10129000008048EA0008DFF83091C9F800800AE0D1
:1012A00075E0DFF82481D8F8008028EA0008DFF82C
:1012B0001891C9F80080D1F8048008F40018B8F536
:1012C000001F0ED1DFF8008108F10408D8F8008073
:1012D00048EA0008DFF8F09009F10409C9F8008035
:1012E0000DE0DFF8E48008F10408D8F8008028EA6F
:1012F0000008DFF8D49009F10409C9F80080D1F89A
:10130000048008F40038B8F5003F0ED1DFF8B8804B
:10131000A8F10408D8F8008048EA0008DFF8A8908F
:10132000A9F10409C9F800800DE0DFF89C80A8F15C
:101330000408D8F8008028EA0008DFF88C90A9F1AA
:101340000409C9F80080D1F8048008F48038B8F5A1
:10135000803F0ED1DFF87080A8F10808D8F800802F
:1013600048EA0008DFF86090A9F10809C9F8008090
:101370000DE0DFF85480A8F10808D8F8008028EACA
:101380000008DFF84490A9F10809C9F800805B1C47
:10139000D1F8008028FA03F8B8F1000F7FF47CAE92
:1013A000BDE8F8870000111000100240000801405D
:1013B000000C0140001001400014014000180140E1
:1013C000001C0140080001400804014002469368E7
:1013D0000B400BB1012000E00020704710B5C2683F
:1013E00021EA020302EA010443EA0443036110BD57
:1013F0000AB1016101E00B04036170470148006814
:101400007047000070010020034800680349097814
:1014100008440149086070477001002078010020ED
:1014200010B50848006840F0100006490860032025
:1014300000F0A8F80F2000F007F800F02BF80020CB
:1014400010BD00000020024070B504460E48007830
:101450004FF47A71B1FBF0F00C490968B1FBF0F57B
:10146000284600F0F9FB08B1012070BD102C07D20E
:1014700000222146501E00F047F80548046001E0B4
:101480000120F2E70020F0E7780100207C01002035
:101490007401002008B500BF1148806940F00100C8
:1014A0000F4988610846806900F00100009000BF84
:1014B00000BF00BF0846C06940F08050C8610846C0
:1014C000C06900F08050009000BF00BF00BF054918
:1014D000486820F0E06040F00070486000BF08BD40
:1014E000001002400000014001460846002809DBC8
:1014F00000F01F0301229A4043099B0003F1E023FF
:10150000C3F8002100BF70472DE9F05F80460D460B
:101510001646002703F044F9074639462A46334663
:1015200001F00700C0F1070ABAF1040F02D94FF029
:10153000040A01E0C0F1070AD14600F1040ABAF139
:10154000070F02D24FF0000A01E0A0F1030AD446CF
:101550004FF0010A0AFA09FAAAF1010A0AEA020A94
:101560000AFA0CFA4FF0010B0BFA0CFBABF1010B72
:101570000BEA030B4AEA0B042146404603F018F934
:10158000BDE8F09F00BF00F00702064B19684FF658
:10159000FF031940044B0B4343EA0221014B19603E
:1015A00000BF70470CED00E00000FA0570B504467E
:1015B0000D460CB9012070BD5A48006800F00700C4
:1015C000A8420ED25748006820F00700284355492A
:1015D00008600846006800F00700A84201D001201A
:1015E000E9E7207800F0020002281DD1207800F001
:1015F0000400042805D14C48406840F4E0604A49A2
:101600004860207800F00800082805D14648406866
:1016100040F46050444948604348406820F0F0007E
:10162000A168084340494860207800F0010078B381
:101630006068012806D13C48006800F4003090B989
:101640000120B8E76068022806D13748006800F03A
:10165000007040B90120AEE73348006800F0020096
:1016600008B90120A7E73048406820F0030061680E
:1016700008432D494860FFF7C1FE064609E0FFF721
:10168000BDFE801B41F28831884202D9032092E7D7
:1016900007E02548406800F00C006168B0EB810F5E
:1016A000EDD12048006800F00700A8420ED91D487F
:1016B000006820F0070028431A49086008460068BF
:1016C00000F00700A84201D0012074E7207800F064
:1016D0000400042807D11448406820F4E060E16861
:1016E000084311494860207800F00800082808D114
:1016F0000D48406820F46050216940EAC1000A4961
:10170000486000F03FF808494968C1F30311074AEF
:10171000515CC8400649086006480068FFF794FE1F
:10172000002048E7002002400010024070870008B7
:101730007C0100207401002001480068704700000F
:101740007C01002000B5FFF7F7FF04494968C1F3A9
:101750000221034A515CC84000BD00000010024055
:101760008087000800B5FFF7E7FF04494968C1F327
:10177000C221034A515CC84000BD00000010024075
:101780008087000870B5002100220024002300207B
:10179000134D696801F00C05F5B1042D02D0082D38
:1017A00019D101E00F4819E00F4DC1F38346AB5D3D
:1017B00001F4803555B10A4D6D68C5F340450B4EB7
:1017C000725D084D5D43B5FBF2F402E0084D03FB8A
:1017D00005F4204602E000BF024800BF00BF70BD14
:1017E0000010024000127A005E8700086E87000831
:1017F00000093D00F8B504460CB90120F8BD207879
:1018000000F00100002878D0F848406800F00C0093
:1018100004280CD0F548406800F00C00082811D1CD
:10182000F248406800F48030B0F5803F0AD1EF48BC
:10183000006800F4003000285FD0606800285CD1A8
:101840000120DBE700BF6068B0F5803F06D1E748C4
:10185000006840F48030E549086028E0606858B9C5
:10186000E248006820F48030E049086008460068DB
:1018700020F4802008601AE06068B0F5A02F0BD13A
:10188000DA48006840F48020D849086008460068BB
:1018900040F4803008600AE0D448006820F48030CA
:1018A000D24908600846006820F48020086000BF24
:1018B000606888B1FFF7A2FD054606E0FFF79EFDD0
:1018C000401B642801D9032098E7C848006800F449
:1018D00000300028F2D010E0FFF790FD054606E04A
:1018E000FFF78CFD401B642801D9032086E7BF4821
:1018F000006800F400300028F2D1207800F00200E7
:10190000022857D1B948406800F00C0050B1B748E0
:10191000406800F00C00082818D1B448406800F472
:10192000803098B9B148006800F0020020B1206909
:10193000012801D0012061E7AC48006820F0F800E0
:10194000616940EAC100A949086033E02069E8B153
:101950000120A7490860FFF751FD054606E0FFF7A3
:101960004DFD401B022801D9032047E79F4800682E
:1019700000F002000028F2D09C48006820F0F80037
:10198000616940EAC1009949086013E00020984964
:101990000860FFF733FD054606E0FFF72FFD401B0B
:1019A000022801D9032029E79048006800F00200CE
:1019B0000028F2D1207800F0080008282DD1A06975
:1019C000B8B101208B490860FFF718FD054606E015
:1019D000FFF714FD401B022801D903200EE78348BE
:1019E000406A00F002000028F2D0012002F07AF9EB
:1019F00013E000207F490860FFF700FD054606E080
:101A0000FFF7FCFC401B022801D90320F6E67748CB
:101A1000406A00F002000028F2D1207800F00400B3
:101A2000042873D100277148C06900F0805070B954
:101A300000BF6E48C06940F080506C49C8610846DC
:101A4000C06900F08050009000BF00BF01276A48C5
:101A5000006800F48070B0B96748006840F4807096
:101A600065490860FFF7CAFC054606E0FFF7C6FCBB
:101A7000401B642801D90320C0E65F48006800F4D9
:101A800080700028F2D000BFE068012806D15748D6
:101A9000006A40F001005549086227E0E06858B943
:101AA0005248006A20F00100504908620846006A66
:101AB00020F00400086219E0E06805280BD14B48CB
:101AC000006A40F00400494908620846006A40F094
:101AD000010008620AE04548006A20F0010043491D
:101AE00008620846006A20F00400086200BFE0684F
:101AF000A0B1FFF783FC054609E0FFF77FFC401B20
:101B000041F28831884202D9032077E622E0374843
:101B1000006A00F002000028EFD012E0FFF76EFC30
:101B2000054608E0FFF76AFC401B41F28831884215
:101B300001D9032062E62D48006A00F00200002867
:101B4000F0D1012F05D12948C06920F080502749E4
:101B5000C86100BFE069C8B32448406800F00C00C9
:101B6000082860D0E069022848D100202049086692
:101B7000FFF744FC054606E0FFF740FC401B022847
:101B800001D903203AE61948006800F000700028E7
:101B9000F2D1206AB0F5803F07D11448406820F4A4
:101BA0000030A168084311494860D4E9080108439E
:101BB0000E49496821F4741108430C49486001201A
:101BC0000B490866FFF71AFC054607E03DE0FFF702
:101BD00015FC401B022801D903200FE603480068CA
:101BE00000F000700028F2D02FE00000001002404A
:101BF000000042428004424200700040002014492C
:101C00000866FFF7FBFB054606E0FFF7F7FB401B06
:101C1000022801D90320F1E50E48006800F00070A9
:101C20000028F2D111E0E069012800D1E6E5094879
:101C3000466806F48031206A814204D106F47011AE
:101C4000606A814201D00120D8E50020D6E500007D
:101C5000000042420010024070B504462546681E4E
:101C6000B0F1807F01D301200FE0681E4FF0E0212A
:101C700048610F214FF0FF3002F09AFD00204FF035
:101C8000E021886107200861002070BD704770471F
:101C900010B50346002200BF93F83C00012801D193
:101CA000022010BD012083F83C0000BF22F0FF009D
:101CB000CC6840EA040222F440708C6840EA0402D6
:101CC00022F480604C6840EA040222F400600C6850
:101CD00040EA040222F480500C6940EA040222F433
:101CE00000504C6940EA040222F48040CC6940EA8A
:101CF00004021868426400BF002083F83C0000BF63
:101D000000BFCEE730B502460B4600BF92F83C005C
:101D1000012801D1022030BD012082F83C0000BF23
:101D2000022082F83D00106844681068816824F041
:101D300070041868044310684460144D1068A84289
:101D400013D0134D1068A8420FD01068B0F1804F27
:101D50000BD0104D1068A84207D00F4D1068A84254
:101D600003D00E4D1068A84205D121F080015868BB
:101D7000014310688160012082F83D0000BF00200F
:101D800082F83C0000BF00BFC5E70000002C014006
:101D9000003401400004004000080040000C0040F6
:101DA00010B504460CB9012010BD94F83D0028B9C7
:101DB000002084F83C00204600F026F8022084F839
:101DC0003D00211D206802F0E7F8012084F846005C
:101DD00000BF84F83E0001213F20015540200155FD
:101DE0004120015500BF00BF012084F8420043207C
:101DF0000155442001554520015500BF012084F8BC
:101E00003D000020D0E7000038B504463E49206878
:101E100088420DD100BF3D48806940F400603B49D5
:101E200088610846806900F40060009000BF6AE0A5
:101E30002068B0F1804F16D100BF3448C06940F02F
:101E400001003249C8610846C06900F001000090F5
:101E500000BF00BF002211461C20FFF755FB1C20CD
:101E6000FFF742FB4FE02A492068884216D100BFA5
:101E70002648C06940F002002449C8610846C0698C
:101E800000F00200009000BF00BF002207211D20CB
:101E9000FFF73AFB1D20FFF727FB34E01D492068C0
:101EA000884216D100BF1948C06940F004001749A4
:101EB000C8610846C06900F00400009000BF00BF80
:101EC000002208211E20FFF71FFB1E20FFF70CFB3E
:101ED00019E011492068884215D100BF0B48C0693C
:101EE00040F010000949C8610846C06900F01000C0
:101EF000009000BF00BF002206213620FFF704FB40
:101F00003620FFF7F1FA38BD002C014000100240E6
:101F1000000400400008004000100040014691F815
:101F20003D00012801D001207047022081F83D00CA
:101F30000868C06840F001000B68D860164B08685C
:101F4000984213D0154B086898420FD00868B0F13A
:101F5000804F0BD0124B0868984207D0114B08688D
:101F6000984203D0104B086898420CD108688068EA
:101F700000F00702062A0CD00868006840F0010053
:101F80000B68186005E00868006840F001000B6805
:101F900018600020C8E70000002C01400034014018
:101FA0000004004000080040000C00402DE9F04112
:101FB00004460D46002700BF94F83C00012802D1DA
:101FC0000220BDE8F081012084F83C0000BF02201F
:101FD00084F83D002068866826F0770626F47F4660
:101FE000206886602868502833D00CDC202850D028
:101FF00004DC00284BD0102851D149E0302849D0CA
:1020000040284CD139E060282DD0702807D0B0F599
:10201000805F03D0B0F5005F41D10DE041E0D5E92C
:1020200002136A68206802F016F82068866846F095
:1020300077062068866034E0D5E902136A68206874
:1020400002F009F82068806840F4804021688860C8
:1020500027E0EA686968206802F0EEF850212068FD
:1020600002F004F81DE0EA686968206802F0F7F8F9
:102070006021206801F0FAFF13E0EA6869682068CF
:1020800002F0DAF84021206801F0F0FF09E000BF1B
:1020900000BF00BF2968206801F0E8FF01E00127C8
:1020A00000BF00BF012084F83D0000BF002084F87D
:1020B0003C0000BF384684E7704710B504462068EE
:1020C0000069C0F34000D8B12068C068C0F3400088
:1020D000B0B16FF00200216808610120207720680C
:1020E000806900F0030018B12046FFF7E5FF05E026
:1020F000204600F0E7F8204600F09BF9002020770A
:1021000020680069C0F38000D8B12068C068C0F3BF
:102110008000B0B16FF004002168086102202077D0
:102120002068806900F4407018B12046FFF7C4FFB2
:1021300005E0204600F0C6F8204600F07AF90020BD
:10214000207720680069C0F3C000D8B12068C0685B
:10215000C0F3C000B0B16FF008002168086104202E
:1021600020772068C06900F0030018B12046FFF70F
:10217000A3FF05E0204600F0A5F8204600F059F93D
:102180000020207720680069C0F30010D8B12068D3
:10219000C068C0F30010B0B16FF010002168086192
:1021A000082020772068C06900F4407018B12046EC
:1021B000FFF782FF05E0204600F084F8204600F09B
:1021C00038F9002020772068006900F0010058B13C
:1021D0002068C06800F0010030B16FF00100216894
:1021E0000861204600F0A0F920680069C0F3C01023
:1021F00058B12068C068C0F3C01030B16FF08000E3
:10220000216808612046FFF741FD20680069C0F39E
:10221000801058B12068C068C0F3801030B16FF0F2
:10222000400021680861204600F0D4FD2068006964
:10223000C0F3401058B12068C068C0F3401030B1FE
:102240006FF02000216808612046FFF720FD10BDD7
:1022500010B586B0044600200290039004900590CB
:1022600014492068884222D100BF1348806940F099
:102270004000114988610846806900F040000190E3
:1022800000BF00BF4FF484400290022003900590ED
:1022900002A90A48FEF7FAFE00BF0949486820F083
:1022A000C00040F0E06040F0C000486000BF06B0F1
:1022B00010BD0000002C0140001002400018014039
:1022C0000000014070472DE9F04104460D461646D6
:1022D000002700BF94F83C00012802D10220BDE88D
:1022E000F081012084F83C0000BF36B1042E1BD0E1
:1022F000082E31D00C2E5ED145E02946206801F031
:10230000BFFE2068806940F008002168886120686D
:10231000806920F00400216888612068806929694B
:1023200008432168886148E02946206801F0E0FE02
:102330002068806940F400602168886120688069B5
:1023400020F480602168886120688069296940EAFA
:1023500001202168886130E02946206801F006FFED
:102360002068C06940F008002168C8612068C06921
:1023700020F004002168C8612068C0692969084309
:102380002168C86119E02946206801F02BFF206808
:10239000C06940F400602168C8612068C06920F409
:1023A00080602168C8612068C069296940EA01200D
:1023B0002168C86101E0012700BF00BF00BF002005
:1023C00084F83C0000BF384689E710B504460CB9D4
:1023D000012010BD94F83D0028B9002084F83C008D
:1023E000204600F025F8022084F83D00211D2068D9
:1023F00001F0D2FD012084F8460000BF84F83E00C1
:1024000001213F200155402001554120015500BFC9
:1024100000BF012084F842004320015544200155AB
:102420004520015500BF012084F83D000020D0E781
:102430007047704770B504460D4615B994F83E00D4
:102440000BE0042D02D13F20005D06E0082D02D1F3
:102450004020005D01E04120005D012801D0012005
:1024600070BD1DB9022084F83E000EE0042D03D19A
:1024700002213F20015508E0082D03D10221402010
:10248000015502E002214120015501222946206820
:1024900001F0D0FD1F492068884203D01E49206802
:1024A000884201D1012000E0002028B12068406C62
:1024B00040F400402168486416492068884213D0DF
:1024C0001549206888420FD02068B0F1804F0BD0AA
:1024D00012492068884207D011492068884203D0F9
:1024E0001049206888420CD12068806800F00706F7
:1024F000062E0CD02068006840F0010021680860BA
:1025000005E02068006840F00100216808600020B4
:10251000A6E70000002C0140003401400004004008
:1025200000080040000C00402DE9FC478246FD48B1
:10253000824519D1FC480088401CFB490880FB48B3
:102540000168FB48FDF7CBFE0446F7480088FEF71C
:10255000C7F805462146FEF781F905D80020F54960
:1025600009684863F0490880F34882457ED1F34901
:10257000B1F90400FEF7ABF806464FF08E41FDF7C7
:10258000E0FE0546EE49FDF7AAFE0446ED49FDF7DB
:10259000A6FEED490860ED480068ED49086000219D
:1025A000E9480068FDF743FE0546EA49FDF797FE56
:1025B0000446E449FDF7C5FEE4490860E4480068C4
:1025C000FEF7E3F80646E44AE44BFDF79FFF0446B6
:1025D0000D46DE480068FEF7D8F80646E04AE14BB3
:1025E000FDF794FF22462B46CDE90001FDF7E7FEFB
:1025F0008046FEF70DF9D549086008460068FEF7E9
:10260000C4F8D94AD94BCDE90001FDF77FFF8046D8
:102610008946D7480068FEF7B8F8064642464B465A
:10262000FDF7CDFE0446FEF7F3F8D1490860C54931
:10263000CF480068FEF712F902D2CE48CC490860B4
:10264000CC49CB480068FEF7FFF802D2BD48C84924
:102650000860C7480068FEF766F8C7490860B749D0
:10266000B1F90200FEF733F8064600E0E9E04FF06A
:102670008E41FDF766FE0546B149FDF730FE044682
:10268000B049FDF72CFEBD490860BD480068BD4952
:1026900008600021B9480068FDF7C9FD0546AD494D
:1026A000FDF71DFE0446A749FDF74BFEB44908603F
:1026B000B4480068FEF769F80646A74AA74BFDF73D
:1026C00025FF04460D46AE480068FEF75EF8064654
:1026D000A34AA44BFDF71AFF804622462B46FDF77E
:1026E0006EFECDE90001FEF793F8A54908600846A3
:1026F0000068FEF74AF89C4A9C4BCDE90001FDF7C3
:1027000005FF06460F46A0480068FEF73EF88046E3
:1027100032463B46FDF753FE0446FEF779F89A49E8
:102720000860884998480068FEF798F802D29148F6
:10273000954908608F4994480068FEF785F802D2F1
:1027400080489149086090480068FDF7ECFF8F4988
:1027500008607A49B1F90000FDF7B9FF06464FF06D
:102760008E41FDF7EEFD05467549FDF7B8FD0446BF
:102770007449FDF7B4FD86490860864800688649BB
:102780000860002182480068FDF751FD0546714947
:10279000FDF7A5FD04466B49FDF7D3FD7D490860B3
:1027A0007D480068FDF7F1FF06466B4A6B4BFDF76D
:1027B000ADFE04460D4677480068FDF7E6FF064685
:1027C000674A684BFDF7A2FE804622462B46FDF77E
:1027D000F6FDCDE90001FEF71BF86E4908600846DA
:1027E0000068FDF7D2FF604A604BCDE90001FDF7BC
:1027F0008DFE04460D4669480068FDF7C6FF064693
:1028000022462B46FDF7DBFD8046FEF701F86349C3
:1028100008604C4961480068FEF720F802D255482C
:102820005E49086053495D480068FEF70DF802D222
:1028300044485A49086059480068FDF774FF5849F0
:102840000860584882456CD15748007801280ED15D
:102850004748006803F00AFD04465449FDF7FEFFAF
:1028600005D800205049087001205149087051488E
:10287000007801280ED13E48006803F023FC04468E
:102880004D49FDF7EBFF05D800204A4908700120AB
:102890004A4908704A48007801281BD14948006815
:1028A000801DFDF714FF04463748006803F0DEFC86
:1028B00005462146FDF7D2FF0CD84FF07F5002F0BD
:1028C0008FFF0020404908603D4908702F4800688C
:1028D0003E4908603E480078012816D13848007803
:1028E00098B939480068401C3749086008460068B4
:1028F00040F6E441884208D34FF07F5002F08AFF4F
:1029000000203349087030490860324800780128B7
:102910006CD131480068401C2F49086008460068A7
:102920005CE013E210080020500100205401002058
:10293000000048453807002058080020E400002027
:1029400000004843000034430C0000201000002029
:1029500014000020000020419A9999999999B93F53
:10296000CDCCCCCCCCCCEC3F7B14AE47E17A843FD1
:1029700018000020000034C3400000202C0000207C
:102980003000002034000020380000203C000020EF
:102990001C0000202000002024000020280000202F
:1029A0004400002080070020480000200000A842CA
:1029B0004E0000204900002000002E434F00002060
:1029C000780000205C0000208C00002060000020C7
:1029D000790000209400002098000020B0F5C87F06
:1029E00004D30020DA490870DA490860DA48007830
:1029F00001280ED1D948006803F038FC0446D849B4
:102A0000FDF722FF05D80020D34908700120D549E1
:102A10000870D548007801280ED1D048006803F02E
:102A200067FB0446D149FDF70FFF05D80020CE49CA
:102A300008700120CE490870CE48007801280ED1D8
:102A4000C648006803F012FC0446CB49FDF706FFB8
:102A500005D80020C74908700120C8490870C84837
:102A6000007801280ED1BD48006803F02BFB044616
:102A7000C449FDF7F3FE05D80020C14908700120C4
:102A8000C1490870C1480078012879D1B34800686D
:102A9000FDF77BFE04460022BD4BFDF7A1FE32D8B8
:102AA0000020BC490860BC490860BC48D0F80080E0
:102AB000B8F1000F01DB414601E0C8F10001084612
:102AC000FDF713FE06460022B14BFDF71FFD04463D
:102AD000FDF742FEB2490860B048D0F80080B8F176
:102AE000000F01DB414601E0C8F100010846FDF797
:102AF000FCFD06460022A64BFDF708FD0446FDF747
:102B00002BFEA849086095480068FDF73EFE044684
:102B10000022A54BFDF74CFE32D8A048D0F800802B
:102B2000B8F1000F01DB414601E0C8F100010846A1
:102B3000FDF7DBFD06460022954BFDF7E7FC04465A
:102B4000FDF70AFE934908609448D0F80080B8F178
:102B5000000F01DB414601E0C8F100010846FDF726
:102B6000C4FD064600228A4BFDF7D0FC0446FDF763
:102B7000F3FD894908600020894908608949086097
:102B80008A480078012875D174480068FDF7FDFD7A
:102B900004460022864BFDF723FE4AD800216F48E9
:102BA0000068FDF751FE44D200207A4908607A4956
:102BB00008607A48D0F80090B9F1000F01DB484670
:102BC00001E0C9F10000C0F1B408B8F1000F01DB69
:102BD000414601E0C8F100010846FDF786FD0646C2
:102BE00000226B4BFDF792FC0446FDF7B5FD6C49E6
:102BF00008606A48D0F80090B9F1000F01DB484640
:102C000001E0C9F10000C0F1B408B8F1000F01DB28
:102C1000414601E0C8F100010846FDF766FD0646A1
:102C200000225B4BFDF772FC0446FDF795FD5D4904
:102C300008604A480068FDF7A8FD044600225D4B85
:102C4000FDF7B6FD4BD8002144480068FDF706FEAD
:102C500045D25248D0F80090B9F1000F01DB484648
:102C600001E0C9F10000C0F1B408B8F1000F02DBC7
:102C7000414602E033E0C8F100010846FDF735FDAA
:102C800006460022424BFDF741FC0446FDF764FD79
:102C9000404908604148D0F80090B9F1000F01DBCD
:102CA000484601E0C9F10000C0F1B408B8F1000FD6
:102CB00001DB414601E0C8F100010846FDF715FDC2
:102CC00006460022324BFDF721FC0446FDF744FD89
:102CD00031490860002032490860324908603648AE
:102CE0000078012819D135480068C01DFDF7EFFCB8
:102CF00004463348006803F0B9FA05462146FDF75B
:102D0000ADFD0AD84FF07F5002F06AFD00202A493D
:102D100008702C4800682C4908602C48007801286D
:102D200014D12548007888B929480068401C2849F2
:102D300008600846006841F25C21884206D34FF0E3
:102D40007F5002F067FD002020490870BDE8FC8735
:102D500094000020980000204A0000201800002065
:102D60000000BE42500000204B0000200000404008
:102D7000510000204C0000200000A842520000201A
:102D80004D0000200000304353000020810000204F
:102D90000000E03F5C0100206401002040000020B2
:102DA00060010020680100200000E0BF82000020D8
:102DB000007066C0007066407A0000205C00002051
:102DC000380000203C000020600000207B00002034
:102DD0009000002070477047704700002DE9F84FC1
:102DE0000446206805682068C668206847694FF077
:102DF0000009CA4605F00F09B9F1000F0AD105F024
:102E0000200038B106F0200020B1204601F0F8FA89
:102E1000BDE8F88FB9F1000F7BD007F0010018B9B9
:102E200006F49070002874D005F0010030B106F46B
:102E3000807018B1606C40F00100606405F004001F
:102E400030B107F0010018B1606C40F0020060641E
:102E500005F0020030B107F0010018B1606C40F0DD
:102E60000400606405F0080048B106F0200010B9C5
:102E700007F0010018B1606C40F008006064606CFD
:102E8000002845D005F0200028B106F0200010B140
:102E9000204601F0B5FA20684069C0F3801A606CE2
:102EA00000F0080010B9BAF1000F2CD0204601F054
:102EB00061FA2068406900F0400000B300BF00BF25
:102EC0002168143151E8001F21F0400021681431BD
:102ED00041E80002002AF3D100BFE06B50B177480F
:102EE000E16B4863E06BFDF7FDFF88B1E06B416B80
:102EF00088470DE02046FFF76FFF09E009E0204614
:102F0000FFF76AFF04E02046FFF766FF00206064D9
:102F10007EE7206B012877D105F01000002873D0E0
:102F200006F010000028FAD000BF002000902068B2
:102F30000068009020684068009000BF00BF2068D3
:102F4000406900F0400000285FD0E06B00684068F6
:102F50001FFA80F8B8F1000F55D0A08D404552DD22
:102F6000A4F82E80E06B8069202843D000BF00BF0A
:102F700021680C3151E8001F21F4807021680C3168
:102F800041E80002002AF3D100BF00BF00BF216862
:102F9000143151E8001F21F001002168143141E88B
:102FA0000002002AF3D100BF00BF00BF2168143126
:102FB00051E8001F21F040002168143141E800026F
:102FC000002AF3D100BF202084F8420000202063B3
:102FD00000BF00BF21680C3151E8001F21F0100034
:102FE00021680C3141E80002002AF3D100BFE06BF8
:102FF000FDF74DFF02206063A08DE28D801A81B243
:103000002046FFF7E8FE03E742E0A08DE18D401A7D
:103010001FFA80F8E08DD0B3B8F1000F37D000BFB1
:1030200000BF21680C3151E8001F21F49070216825
:103030000C3141E80002002AF3D100BF00BF00BFFD
:103040002168143151E8001F21F00100216814317A
:1030500041E80002002AF3D100BF202084F842009A
:103060000020206300BF00BF21680C3151E8001F21
:1030700021F0100021680C3141E80002002AF3D150
:1030800000BF0220606341462046FFF7A4FEBFE672
:1030900005F0800030B106F0800018B1204601F044
:1030A000CBFAB5E605F0400030B106F0400018B1AB
:1030B000204601F095F9ABE600BFA9E661430008A0
:1030C00010B504460CB9012010BDA06900B100E0A4
:1030D00000BF94F8410028B9002084F84000204641
:1030E00000F02AF8242084F841002068C06820F409
:1030F00000502168C860204601F000FA206800698D
:1031000020F49040216808612068406920F02A007E
:10311000216848612068C06840F400502168C86098
:1031200000206064202084F8410084F842000020E0
:10313000606300BFC8E7000010B586B004460020F9
:103140000290039004900590A1492068884237D1ED
:1031500000BFA048C06940F400209E49C8610846ED
:10316000C06900F40020019000BF00BF00BF084606
:10317000806940F0100088610846806900F0100006
:10318000019000BF00BF08150290022003900320A9
:10319000059002A99048FDF779FF4FF40060029076
:1031A00000200390049002A98B48FDF76FFF0022D6
:1031B00001213420FEF7A8F93420FEF795F904E147
:1031C00086492068884243D100BF8248C06940F4E4
:1031D00080108049C8610846C06900F480100190E1
:1031E00000BF00BF00BF0846806940F01000886142
:1031F0000846806900F01000019000BF00BF00BFCA
:103200000846806940F0200088610846806900F027
:103210002000019000BF00BF88140290022003909C
:103220000320059002A96C48FDF730FF04200290AE
:1032300000200390049002A96948FDF727FF0022AF
:1032400005213520FEF760F93520FEF74DF9BCE089
:1032500064492068884237D100BF5E48806940F4E5
:1032600080405C4988610846806900F48040019094
:1032700000BF00BF00BF0846806940F004008861BD
:103280000846806900F00400019000BF00BF4815A7
:103290000290022003900320059002A95248FDF7F6
:1032A000F5FE4FF48060029000200390049002A984
:1032B0004D48FDF7EBFE002201212520FEF724F901
:1032C0002520FEF711F980E048492068884236D170
:1032D00000BF4048C06940F400303E49C86108461C
:1032E000C06900F40030019000BF00BF00BF084675
:1032F000806940F0040088610846806900F004009D
:10330000019000BF00BF0420029002200390032020
:10331000059002A93448FDF7B9FE0820029000206C
:103320000390049002A93048FDF7B0FE002202216C
:103330002620FEF7E9F82620FEF7D6F845E02C49CE
:103340002068884241D100BF2248C06940F48020F3
:103350002049C8610846C06900F48020019000BF80
:1033600000BF00BF0846806940F020008861084621
:10337000806900F02000019000BF00BF8815029016
:10338000022003900320059002A91548FDF77EFE58
:103390004FF40070029000200390049002A910489E
:1033A000FDF774FE00BF1349486820F0300040F07C
:1033B000E06040F03000486000BF00220321272079
:1033C000FEF7A2F82720FEF78FF806B010BD000028
:1033D000004C00400010024000100140005000402E
:1033E0000014014000380140000801400044004042
:1033F000004800400000014070B504460D461646E6
:1034000094F8420020280BD105B10EB9012070BDFF
:103410000020206332462946204601F0EDF8F6E709
:103420000220F4E710B5044613492068884208D109
:10343000012212491248FFF7DFFF1048007804F01C
:103440005DFF10492068884208D10F49087805F0CF
:1034500045F901220C490D48FFF7CEFF0C492068C1
:10346000884208D10B49087805F056F9012209492C
:103470000948FFF7C1FF10BD004800406F01002060
:10348000C009002000380140080000203009002059
:10349000004C004009000020A008002010B50346A1
:1034A00093F84100202813D101B10AB9012010BDC1
:1034B00019629A84DA8400205864212083F841003C
:1034C0001868C06840F080001C68E0600020EEE7EB
:1034D0000220ECE7704700BFFEE7000010B50122B4
:1034E0000E490F48FFF788FF0E4804F0C1FD642025
:1034F00002F050FE0C4804F0BBFD642002F04AFECE
:103500000A4804F0B5FD642002F044FE084804F0C7
:10351000AFFD642002F03EFE10BD00006F010020F0
:10352000C009002024010020290100202E010020D4
:103530003301002000B585B0002001900290039077
:10354000049000BF7B48806940F010007949886191
:103550000846806900F01000009000BF00BF00BF67
:103560000846806940F0040088610846806900F0E0
:103570000400009000BF00BF00BF0846806940F013
:10358000080088610846806900F00800009000BFCC
:1035900000BF00BF0846806940F0400088610846CF
:1035A000806900F04000009000BF00BF00BF0846E7
:1035B000806940F0200088610846806900F02000A2
:1035C000009000BF00BF00BF0846806940F48070D3
:1035D00088610846806900F48070009000BF00BFD9
:1035E00000224FF400515448FDF702FF0022B021A1
:1035F0005248FDF7FDFE002240F681315048FDF7AC
:10360000F7FE00224FF400514E48FDF7F1FE002274
:10361000B8214D48FDF7ECFE00224FF4FC414B4829
:10362000FDF7E6FE4FF400500190012002900020CB
:1036300003900220049001A93F48FDF727FDB02028
:1036400001900120029003900320049001A93B48BF
:10365000FDF71CFD40200190002002900120039006
:1036600001A93648FDF712FD012001900290039058
:103670000320049001A93248FDF708FD02200190C3
:10368000002002900120039001A92D48FDF7FEFCC7
:103690004FF40060019000200290039001A9294896
:1036A000FDF7F4FC4FF4005001900120029000203F
:1036B00003900220049001A92248FDF7E7FC4FF493
:1036C00038600190012002900020039002200490B5
:1036D00001A91B48FDF7DAFCB820019001200290F7
:1036E000002003900220049001A91748FDF7CEFCAA
:1036F00040200190164802900020039001A9124832
:10370000FDF7C4FC4FF4FC40019001200290002022
:1037100003900220049001A90C48FDF7B7FC782023
:10372000019000200290039001A90548FDF7AEFC2E
:1037300005B000BD0010024000100140000801402B
:10374000000C01400018014000140140002001401D
:103750000000111000B595B0002011901290139048
:1037600014900F9010901C2108A8FCF716FD202142
:103770006846FCF712FD2F482F49086040F2CF2021
:10378000486000212C4881600921C160002101614D
:10379000416180218161FEF703FB08B1FDF774FBF5
:1037A0004FF48050119011A92348FEF7FFFB08B198
:1037B000FDF76AFB2048FEF708FE08B1FDF764FB41
:1037C00000200F9010900FA91B48FEF79BFA08B13C
:1037D000FDF75AFB60200890002009900A900B909A
:1037E0000C900D900E90002208A91348FEF76BFD77
:1037F00008B1FDF749FB0C2208A90F48FEF763FD4D
:1038000008B1FDF741FB0020009001900290039069
:1038100004904FF400500590002007906946064838
:10382000FEF736FA08B1FDF72FFB0348FEF710FD4F
:1038300015B000BD002C01403807002000B587B04E
:1038400000200390049005900690019002904FF0A4
:1038500080401449086041F61F404860002111482B
:1038600081606321C160002101618161FEF798FAE6
:1038700008B1FDF709FB4FF48050039003A90948F4
:10388000FEF794FB08B1FDF7FFFA002001900290CB
:1038900001A90448FEF736FA08B1FDF7F5FA07B0BA
:1038A00000BD00008007002000B587B00020039015
:1038B0000490059006900190029015481549086003
:1038C00041F61F40486000211248816040F2E73114
:1038D000C160002101618161FEF762FA08B1FDF764
:1038E000D3FA4FF48050039003A90A48FEF75EFB19
:1038F00008B1FDF7C9FA00200190029001A905481E
:10390000FEF700FA08B1FDF7BFFA07B000BD0000EE
:1039100000040040C807002000B587B000200390D5
:103920000490059006900190029014481449086094
:1039300040F2CF2048600021114881600921C16018
:10394000002101618161FEF72BFA08B1FDF79CFAB5
:103950004FF48050039003A90948FEF727FB08B1F4
:10396000FDF792FA00200190029001A90448FEF7A9
:10397000C9F908B1FDF788FA07B000BD000800409A
:10398000100800201CB50020009001900E480F493F
:10399000086040F2CF20486000210C48816040F26E
:1039A000E731C16000218161FEF7FAF908B1FDF746
:1039B0006BFA00200090019069460448FEF7A2F9D6
:1039C00008B1FDF761FA1CBD001000405808002046
:1039D00010B50B480B4908604FF4165048600021A1
:1039E00008488160C16001610C2141610021816151
:1039F000C161FFF765FB08B1FDF746FA10BD000095
:103A0000004C0040A008002010B50B480B4908608E
:103A10004FF4E1304860002108488160C1600161D5
:103A20000821416100218161C161FFF749FB08B1B3
:103A3000FDF72AFA10BD000000500040E808002001
:103A400010B50B480B4908604FF416504860002130
:103A500008488160C16001610C21416100218161E0
:103A6000C161FFF72DFB08B1FDF70EFA10BD000094
:103A7000003801403009002010B50B480B490860A0
:103A80004FF416504860002108488160C160016110
:103A90000821416100218161C161FFF711FB08B17B
:103AA000FDF7F2F910BD0000004400407809002045
:103AB00010B50B480B4908604FF4165048600021C0
:103AC00008488160C16001610C2141610021816170
:103AD000C161FFF7F5FA08B1FDF7D6F910BD000096
:103AE00000480040C009002000BFFEE700BFFEE71D
:103AF0001FB519A103C9CDE9020100200090019072
:103B000000F0F8FD012000F0FFFD002000F0DEFDD8
:103B1000052202A9302000F0B6F8052269461020DF
:103B200000F084F89DF80000112812D19DF80100E2
:103B300022280ED19DF8020033280AD19DF80300F7
:103B4000442806D19DF80400552802D1002004B075
:103B500010BD0120FBE70000112233445500000096
:103B600070B50446072000F07DF805462946272059
:103B700000F0A5F805F0400098B1012000F0A6FD86
:103B800020222146612000F051F8FF21E22000F0C0
:103B900096F8012000F09AFD9620FDF7D0F800205D
:103BA00070BD0120FCE710B500F0B0F810BD10B5F5
:103BB00000BFFFF79DFF0028FBD100F001F810BD0A
:103BC00010B5002000F082FD2021312000F077F8B0
:103BD000FF21E22000F073F805221249302000F0A6
:103BE00052F8052210492A2000F04DF80121212029
:103BF00000F065F80121222000F061F81A2124204C
:103C000000F05DF80021252000F059F80F21262052
:103C100000F055F80F21202000F051F8012000F0AD
:103C200055FD10BD54870008598700082DE9F04163
:103C300007460D461646002000F066FD384600F0A7
:103C400075F88046002405E0FF2000F06FF8285545
:103C5000601CC4B2B442F7DB012000F055FD4046C1
:103C6000BDE8F08170B50446002000F04DFD20460F
:103C700000F05CF8FF2000F059F80546012000F044
:103C800043FD284670BD2DE9F04107460C46154618
:103C9000002000F039FD384600F048F88046002644
:103CA00005E014F8010B00F041F8701CC6B2AE42FA
:103CB000F7DB012000F028FD4046BDE8F08170B53B
:103CC00005460C46002000F01FFD284600F02EF8A7
:103CD0000646204600F02AF8012000F015FD304687
:103CE00070BD704708B508490968C9084FF47A7271
:103CF000B1FBF2F14143009100BF00BF00994A1EA1
:103D000000920029F9D108BD7C01002010B50221E4
:103D10000148FDF75BFB10BD000C014010B54021D0
:103D20000148FDF753FB10BD0008014070B5044683
:103D3000002517E004F08000802803D1012000F066
:103D4000CFFC02E0002000F0CBFC6006040E012056
:103D500000F0D0FCFFF7E2FF0443002000F0CAFCB3
:103D6000681CC5B2082DE5DB204670BD10B50520E6
:103D700002F010FA012004F0E1FB022004F0DEFB67
:103D8000032004F0DBFB042004F0D8FB04F01AFC51
:103D900010BD000010B51E2002F0FCF9002101202A
:103DA00004F051FC0021022004F04DFC002103200E
:103DB00004F049FC0021042004F045FC04F002FC5E
:103DC00001200149087010BD4800002010B51E20D8
:103DD00002F0E0F90021012004F035FC002102206E
:103DE00004F031FC0021032004F02DFC002104200C
:103DF00004F029FC04F0E6FB01200149087010BD25
:103E00004900002010B51E2002F0C4F90121084627
:103E100004F019FC0121022004F015FC012103200B
:103E200004F011FC0121042004F00DFC04F0CAFB95
:103E300001200149087010BD4A00002010B51E2065
:103E400002F0A8F90121084604F0FDFB012102203F
:103E500004F0F9FB0121032004F0F5FB012104200B
:103E600004F0F1FB04F0AEFB01200149087010BD25
:103E70004B00002010B51E2002F08CF9002101201B
:103E800004F0E1FB0021022004F0DDFB002103200F
:103E900004F0D9FB0021042004F0D5FB04F092FBD0
:103EA00001200149087010BD4C00002010B51E20F3
:103EB00002F070F90021012004F0C5FB002102206E
:103EC00004F0C1FB0021032004F0BDFB002104200D
:103ED00004F0B9FB04F076FB01200149087010BD25
:103EE0004D000020704710B5FDF78EFA10BD00B5EB
:103EF0008FB0282105A8FCF750F914216846FCF77B
:103F00004CF9012005900004069000200790012044
:103F1000099002200C90C1030D914FF4E0110E9115
:103F200005A8FDF767FC08B1FCF7AEFF0F20009075
:103F300002200190002002904FF480600390002046
:103F4000049002216846FDF731FB08B1FCF79CFFA5
:103F50000FB000BD7047000010B50248FEF7ADF885
:103F600010BD00008007002010B50248FEF7A5F83C
:103F700010BD0000C807002010B50248FEF79DF8EC
:103F800010BD00001008002010B50248FEF795F89B
:103F900010BD00005808002010B50268204B984260
:103FA0000ED0204B98420BD0B0F1804F08D01E4B62
:103FB000984205D01D4B984202D01D4B984203D128
:103FC00022F070024B681A43154B98420ED0154BE5
:103FD00098420BD0B0F1804F08D0134B984205D0D7
:103FE000124B984202D0124B984203D122F44072F5
:103FF000CB681A4322F080034C6943EA0402026052
:104000008B68C3620B688362054B984202D0054BF4
:10401000984201D10B6903630123436110BD000085
:10402000002C014000340140000400400008004022
:10403000000C004030B501F01F05012404FA05F31F
:10404000046A9C430462046A01F01F0502FA05F544
:104050002C43046230BD30B50C46816821F47F41A9
:1040600042EA032525432943816030BD0A46816821
:1040700021F0700142F0070319438160704700008E
:1040800030B5026A056A25F0010505624368846956
:1040900024F0700424F003040D682C4322F0020283
:1040A0008D682A43104DA84200D103E00F4DA8426D
:1040B00006D100BF22F00802CD682A4322F0040294
:1040C000094DA84202D0094DA84207D123F48073BC
:1040D00023F400734D692B438D692B434360846146
:1040E0004D684563026230BD002C01400034014040
:1040F00030B5026A056A25F01005056243688469D7
:1041000024F4E04424F440740D6844EA052422F0C9
:1041100020028D6842EA0512124DA84200D103E048
:10412000114DA84207D100BF22F08002CD6842EABB
:10413000051222F040020B4DA84202D00A4DA842BF
:1041400009D123F4806323F400634D6943EA8503B6
:104150008D6943EA8503436084614D68856302622B
:1041600030BD0000002C01400034014030B5026A2F
:10417000056A25F4807505624368C46924F07004FB
:1041800024F003040D682C4322F400728D6842EA87
:104190000522124DA84200D103E0114DA84207D1DB
:1041A00000BF22F40062CD6842EA052222F4806258
:1041B0000A4DA84202D00A4DA84209D123F48053E7
:1041C00023F400534D6943EA05138D6943EA05134F
:1041D0004360C4614D68C563026230BD002C01407C
:1041E0000034014030B5036A056A25F48055056244
:1041F0004468C26922F4E04222F440720D6842EA47
:10420000052223F400538D6843EA0533084DA84284
:1042100002D0084DA84204D124F480444D6944EAF8
:1042200085144460C2614D680564036230BD0000BE
:10423000002C01400034014030B50B461446026AA0
:10424000056A25F001050562816921F0F00141EA66
:10425000041122F00A021A438161026230BD30B5B6
:104260000B461446026A056A25F01005056281694D
:1042700021F4704141EA043122F0A00242EA031223
:104280008161026230BD00000FB410B59CB0FF2008
:104290001B9000241FA80090652101A8009B1E9A76
:1042A00000F050FA002000900EE02046621CD4B2CC
:1042B00001AA811801221A48FFF7F0F800BF184838
:1042C00090F841002028FAD1642C04DA01A8FBF709
:1042D0006FFFA042E9D801221BA91148FFF7DEF8C1
:1042E00000BF0F4890F841002028FAD101221BA9F5
:1042F0000B48FFF7D3F800BF094890F84100202889
:10430000FAD101221BA90648FFF7C8F800BF0448EC
:1043100090F841002028FAD11CB010BC5DF814FBC5
:10432000E808002004490A780978491C024B1970F2
:1043300002498854704700006E010020080A0020DE
:1043400010B50248FEF74AFD10BD0000A00800208D
:1043500010B50248FEF742FD10BD0000E80800203D
:1043600070B505466C6A0020E085E0842046FEF7C3
:1043700033FD70BD00BF00BF02680C3252E8002F51
:1043800022F4907102680C3242E80013002BF3D142
:1043900000BF00BF00BF0268143252E8002F22F0B5
:1043A00001010268143242E80013002BF3D100BF70
:1043B000016B01290ED100BF00BF02680C3252E828
:1043C000002F22F0100102680C3242E80013002B8B
:1043D000F3D100BF202180F8421000210163704713
:1043E00010B504462068C06820F040002168C8600D
:1043F000202084F841002046FFF76CF8002010BD13
:10440000F8B5044694F84200222875D1A068B0F5AA
:10441000805F0CD1206950B90025A66A20684068E9
:10442000C0F308003080A06A801CA06215E0A56A75
:104430000026A068B0F5805F03D0A06828B9206985
:1044400018B920684068287004E02068406800F0CF
:104450007F002870A06A401CA062E08D401E80B2E0
:10446000E085002846D12068C06820F0200021683F
:10447000C8602068C06820F480702168C860206827
:10448000406920F0010021684861202084F8420042
:1044900000206063206B012826D10020206300BF2C
:1044A00000BF21680C3151E8001F21F01000216885
:1044B0000C3141E80002002AF3D100BF20680068F7
:1044C00000F0100010280AD100BF002000902068E2
:1044D0000068009020684068009000BF00BFA18D78
:1044E0002046FEF778FC02E02046FEF79BFF002006
:1044F000F8BD01E00020FBE70220F9E770B50446B3
:104500002168096921F44051E26811432268116170
:104510002269A1681143626941EA02052168C968FC
:1045200041F20C62914329432268D16021684969B4
:1045300021F44071A2691143226851612D4A21681A
:10454000914202D1FDF70EF901E0FDF7FBF800EB17
:10455000C00101EB001162689200B1FBF2F100EBC7
:10456000C00202EB001263689B00B2FBF3F264230B
:10457000B2FBF3F202EBC20303EB0212A1EB8201E6
:10458000322202EB01116422B1FBF2F101F0F001E1
:1045900000EBC00202EB001263689B00B2FBF3F277
:1045A0006423B2FBF3F201EB021200EBC00101EB5A
:1045B000001163689B00B1FBF3F100EBC00303EB58
:1045C00000136668B600B3FBF6F36426B3FBF6F39C
:1045D00003EBC30606EB0313A1EB8301322303EBCA
:1045E00001116423B1FBF3F101F00F0111442268C2
:1045F000916070BD0038014010B5034699629A85FC
:10460000DA8500205864222083F84200186928B116
:104610001868C06840F480701C68E06018684069E1
:1046200040F001001C6860611868C06840F020001C
:104630001C68E060002010BD014691F8410021286F
:1046400028D18868B0F5805F0BD1086948B90A6A3B
:104650001088C0F308000B685860086A801C086264
:1046600005E00B6A581C086218780B685860C88C03
:10467000401E80B2C88458B90868C06820F0800025
:104680000B68D8600868C06840F040000B68D860CC
:10469000002070470220FCE710B50248FEF79EFBA1
:1046A00010BD00003009002010B50248FEF796FB4F
:1046B00010BD00007809002010B50248FEF78EFBFF
:1046C00010BD0000C009002000BFFEE710B5044681
:1046D000224601210148FCF78BFE10BD000C014071
:1046E00010B50446224680210148FCF781FE10BD2A
:1046F0000008014010B50446224620210148FCF77D
:1047000077FE10BD0008014010B504462246102176
:104710000148FCF76DFE10BD000801400FB4084BC6
:1047200010B504A902AA039800F0AAF9044602A948
:10473000002000F033FD204610BC5DF814FB0000A3
:104740009D5100087CB50C001D461646014601D05F
:10475000601E00E00020CDE90010064B6A462946A5
:10476000304600F08DF9002C02D0009A0021117023
:104770007CBD000087510008490050EAC12018BFE5
:1047800004204A0D18BF40F0010040F2FF72B2EB66
:10479000515F08BF40F00200012808BF05207047A4
:1047A00002480068C0F30220704700000CED00E0F2
:1047B00010B5002804DB0A07130E054A135406E05F
:1047C0000A07140E034A00F00F031B1FD45410BD38
:1047D00000E400E018ED00E0004870478001002090
:1047E0002DE9F0414F1E00EBC7010446D1E900015D
:1047F00015461E4637F006020DD02A463346FBF713
:1048000085FE7F1E04EBC703D3E90023FBF7D7FD2A
:1048100037F00602F1D1022F25D0042F13D0062F36
:1048200018BFBDE8F0812A463346FBF76FFED4E996
:104830000A23FBF7C4FD2A463346FBF767FED4E99B
:104840000823FBF7BCFD2A463346FBF75FFED4E99D
:104850000623FBF7B4FD2A463346FBF757FED4E99F
:104860000423FBF7ACFD2A463346FBF74FFED4E9A1
:104870000223FBF7A4FD2A463346FBF747FED4E9A3
:104880000023BDE8F041FBF79ABD0000002213466B
:1048900010460149FBF7ACBE0000F03F0122FCF7D7
:1048A00036B9FBF78CBD0022134610461146FBF7C4
:1048B0009FBE40F2013200204FF0E041FCF727B9E3
:1048C000024A00201107FCF722B9000001FDFFFF9A
:1048D00002E008C8121F08C1002AFAD170477047C9
:1048E000002001E001C1121F002AFBD17047000027
:1048F0000149086070470000800100202DE9FF5F3A
:1049000082B00021DDE90430020DDDF840B0034340
:1049100018D044F61050A2F2FF32424315141198F9
:1049200001281FD0A5EB0B00401C5FEA000A4FF0E6
:1049300000064E4FDFF83891B046504615D5CAF103
:10494000000413E0119801244AA3012801D16FEA61
:104950000B010298119AC0E90031C0E9024206B089
:10496000BDE8F09FCBF10000DFE704460021404A9C
:10497000491842EB0450CDE9001012E0E00707D0DF
:1049800032463B4640464946FBF7C0FD80468946D5
:1049900032463B4610461946FBF7B8FD06460F4621
:1049A0006410002CEAD1DDE90401DDE90023BAF14D
:1049B000000F06DAFBF7AAFD42464B46FBF7A6FDC1
:1049C00005E0FBF715FE42464B46FBF711FE044699
:1049D0000E460022284BFBF703FF03D84FF0FF30B1
:1049E000014607E00022254B20463146FBF7E7FC55
:1049F000FCF7F5F8102409E0002C0ADB0A2200235A
:104A0000FBF74CFF039B30321A55641E50EA01023B
:104A1000F2D1641C039AC4F111031444119A012ABF
:104A200003D0012208430DD10AE0084304D000203E
:104A30004FF0110B119072E7A3EB0B056D1E0DE00B
:104A40005B4504DD4FF0000205F1010504E003DAE7
:104A50004FF00002A5F10105002AECD0029811994F
:104A6000C0E90231C0E9004579E7000000001440C8
:104A70000000F03F300000000000F0430000E03F85
:104A80002DE9FF4F95B09A46884606460025EEE18F
:104A9000252877D100242746F94A0121039400E014
:104AA000044316F8013F203B01FA03F01042F7D10E
:104AB00030782A2811D06FF02F033078A0F130021F
:104AC000092A16D8039A44F0020402EB820203EB8F
:104AD00042021044761C0390EFE758F8042B03922F
:104AE000002A03DA504244F40054039044F00204D4
:104AF000761C30782E2816D116F8010F44F00404E5
:104B00002A280DD06FF02F023078A0F13003092B46
:104B100009D807EB870302EB4303C718761CF3E7BA
:104B200058F8047B761C30786C280FD006DC4C28B3
:104B300017D068280DD06A2814D104E0742810D04A
:104B40007A280FD10DE044F400140AE044F48014F4
:104B500001E044F440147278824202D104F58014DA
:104B6000761C761C307866280BD013DC582877D05A
:104B700009DC002875D04528F6D04628F4D047280F
:104B80001AD193E118E0632835D0642879D06528DC
:104B900012D18BE1702873D008DC6728F1D0692826
:104BA0006FD06E280DD06F2806D1ACE073282CD0C2
:104BB000752874D0782853D05246179990476D1CA9
:104BC00054E1C4F30250022809D003280DD0D8F8CC
:104BD000001004280DD00D6008F1040846E1D8F853
:104BE0000010EA17C1E90052F6E7D8F800100D806E
:104BF000F2E70D70F0E718F8041B8DF800100020A4
:104C00008DF80100EB46012003E058F804BB4FF09B
:104C1000FF3061074FF0000102D40DE009F10101FE
:104C20008946B9420FDA8145F8DB1BF809100029E3
:104C3000F4D108E009F1010189468142FADB1BF851
:104C400009100029F6D103985346A0EB0907214625
:104C50003846179A00F080FA284400EB090507E06F
:104C600044E008E10DE01BF8010B5246179990470C
:104C7000B9F10109F7D2534621463846179AF2E0B6
:104C800039E00A21C4F302524FF0000B0091022ACE
:104C900006D058F8040BC117032A09D00AE023E014
:104CA00008F1070020F00702F2E80201904605E053
:104CB00000B2C117042A01D140B2C117002906DA97
:104CC0000A460021404261EB02012D2202E022054A
:104CD00004D52B228DF80420012203E0E20701D045
:104CE0002022F7E7914657E00A2100E010214FF01B
:104CF000000B00910BE010214FF0000B44F0040476
:104D00000827009103E008204FF0000B0090C4F347
:104D10000252022A05D058F8040B0021032A08D0B9
:104D200008E008F1070020F00702F2E802019046CF
:104D300003E080B2042A00D1C0B24FF0000922077C
:104D40002AD53278702A07D0DDF800C08CF0100C1C
:104D50005CEA0B0C05D00EE040228DF80420012205
:104D600008E050EA010306D030238DF804308DF8B6
:104D7000052002229146009B83F0080353EA0B03AF
:104D80000AD150EA010201D1620705D530228DF81F
:104D900004204FF001097F1E3278582A04D039A22E
:104DA0000C920CAA02920BE03BA2F9E75B46009A38
:104DB000FBF774FD0C9B9B5C029A521E02921370CF
:104DC00050EA0102F2D1029804A9081A00F1200B5E
:104DD000600702D524F4803400E001275F4502DD3E
:104DE000A7EB0B0000E0002000EB0B010090039804
:104DF0004944401A0390E00306D453462146179ACB
:104E0000039800F0A9F90544002706E001A85246DE
:104E1000C05D179990476D1C7F1C4F45F6DBE00382
:104E20000CD553462146179A039800F095F905448E
:104E300004E030205246179990476D1C0099481E97
:104E400000900029F5DC08E00298029952460078AB
:104E5000491C0291179990476D1CBBF10001ABF101
:104E6000010BF1DC5BE100F065F90544761C30785C
:104E700000287FF40DAE19B02846BDE8F08F000081
:104E80000928010030313233343536373839616220
:104E900063646566000000003031323334353637E4
:104EA000383941424344454600000000600700D4C1
:104EB000062708F1070020F00700F0E802238046EB
:104EC00003F0004C5FEA0C0001D097A009E0200538
:104ED00001D596A005E0E00701D095A001E0AFF272
:104EE0004C001390307823F0004365280CD006DC8A
:104EF000452809D046281DD047287FD13BE06628A9
:104F000018D067287AD136E00021112F01DB11205B
:104F100000E0781CCDE9000104A90CA8FFF7EEFC25
:104F2000DDE90D010C9A4FF0000B07F10109109219
:104F300000914EE04FF000400097CDE9011004A928
:104F40000CA8FFF7DBFCDDE90D020C9B0F994FF07D
:104F5000000B91461093009211B9791C00EB0109E6
:104F6000B7EB090003D4C0F1FF3B07F10109A9EB3E
:104F70000700019042E0012F00DA01270021112FE4
:104F800001DD112000E03846CDE9000104A90CA89C
:104F9000FFF7B4FCDDE90D010C9A00914FF0000B16
:104FA000B946109221070FD4009A4A4503DA914678
:104FB00001E0A9F10109B9F1010F05DD109AA9F18C
:104FC0000101515C3029F4D0B84202DA10F1040F2B
:104FD00003DA0121CDE9011010E0002803DC83444D
:104FE000A9EB000102E0411C494500DD8946A0EB28
:104FF0000B00401C01904FF000400290200705D4A8
:105000000198484502DB4FF0FF30019000208DF8F9
:105010004B0002980DF14B07B0F1004F25D0022054
:105020000C902B200D90029800280CDA4042029040
:105030002D200D9007E00A210298FBF719FC303172
:10504000029007F8011D0C99481E0C900029F2DC13
:1050500002980028EFD1791E0D980870307800F082
:10506000200040F0450007F8020D11A8C01BC01D2C
:1050700002901398007800B1012000EB090101981B
:1050800001EBE071029801440398401A401E03901E
:10509000E00306D453462146179A039800F05CF8C3
:1050A00005441398007818B15246179990476D1C23
:1050B000E00323D553462146179A039800F04CF895
:1050C00005441BE0BBF1000F07DB0098584504DDE9
:1050D0001098179910F80B0001E0179930205246EC
:1050E000904701980BF1010B401E05F1010501905D
:1050F00004D12E205246179990476D1CB9F100013A
:10510000A9F10109DEDC05E017F8010B52461799F9
:1051100090476D1C0299481E02900029F4DC53460A
:105120002146179A03989EE62D0000002B000000F0
:10513000200000002DE9F041044600251E461746D8
:10514000880404D405E039462020B0476D1C641E55
:10515000F9D52846BDE8F0812DE9F0410446002547
:105160001E469046C80301D5302700E0202788045A
:1051700004D505E041463846B0476D1C641EF9D59C
:105180002846BDE8F0814A68002A06D00A68531C08
:105190000B6010704868401E486070470A68531CD6
:1051A0000B601070704700002DE9F04D0546DFF8E8
:1051B000388221F000408D4F82B00C46404520DB04
:1051C000A0EB080129430BD08949884201DC10D1AA
:1051D0007DB102B028462146BDE8F04DFFF75EBB29
:1051E000002CC7BF002001468248394602B0BDE806
:1051F000F08D0120FFF77CFB02B0BDE8F04DFFF71A
:1052000052BB7D49884244DA7C498142A1BF79483A
:105210007B4902B0BDE8F08D2A4623461046194668
:10522000FBF774F98346024676480E460B46062184
:105230007844FFF7D5FA5A463346FBF767F9074635
:1052400071488A465A46334604217844FFF7C8FA23
:105250005A463346FBF75AF900224346FBF7AFF8AC
:1052600002460B4638465146FBF7C2F92A4623460A
:10527000FBF74CF9654A664BFBF745F92A4623468E
:10528000FBF741F902B05B4ABDE8F04D5C4BFBF720
:105290003AB9002C4FF000024BDA46464346284606
:1052A0002146FBF78CF84FF0FF32FBF730FC044649
:1052B000024658480D460B4606217844FFF790FAFF
:1052C00022462B46FBF722F9804653488A4622465F
:1052D0002B4604217844FFF783FA22462B46FBF73E
:1052E00015F900223346FBF76AF806468B4620463E
:1052F000294602F0DCFF04460D4632465B46404636
:105300005146FBF775F922462B46FBF7FFF83F4A5B
:105310003F4BFBF7F5F822462B46FBF750F80122EE
:10532000FBF7F5FB02B03B46BDE8F04D314AFBF719
:10533000EAB82D4B28462146FBF7E5F84FF0FF323F
:10534000FBF7E5FB05460E4602F0B1FF00270C46D1
:1053500080463A460B46FBF732F882468B463A4681
:10536000234610461946FBF7D1F82A463346FBF789
:10537000CAF852465B46FBF73BF9824627488B4604
:105380002A46334606217844FFF72AFA2A4633464E
:10539000FBF7BCF8CDE9000121482A463346042139
:1053A0007844FFF71DFA2A463346FBF7AFF8002290
:1053B0000D4BFBF704F802460B46DDE90001FBF755
:1053C00017F942462346FBF7A1F852465B46FAF727
:1053D000F6FF3A462346FAF7F2FF02B00122BDE893
:1053E000F04DFBF794BB00000000F03FFB210940AB
:1053F0000000F07F182D44540000E03F0000603CA6
:10540000FB21F93F543500006A350000075C143376
:1054100026A6913CCA340000E0340000FE330000B0
:10542000143400002DE9F84F04460D4621F00040E9
:1054300000917349814211DC7249884201DC06D136
:105440002CB120462946BDE8F84FFFF727BA6E4831
:10545000002DCCBF6D496E49BDE8F88F6D49814282
:1054600011DD6D498142D8BF4FF0FF366DDD20461A
:105470002946FFF781F9042808BFFFF721FA2046E3
:105480002946BDE8F88F6549654F25F00045814202
:1054900033DD6449814219DD002632464FF08043F6
:1054A00020462946FAF78BFF80468A46012220468D
:1054B0002946FBF72CFB00223B46FBF721F842462E
:1054C0005346FBF795F804460D463EE001260022C0
:1054D000BA463B4620462946FAF771FF80460F46FA
:1054E0000022534620462946FBF70AF842463B462F
:1054F000FBF77EF804460D4627E04B4981421BDD51
:10550000DFF828A102260022534620462946FAF752
:10551000FDFF00223B46FAF752FF80460F4600226D
:10552000534620462946FAF7EBFF42463B46FBF737
:105530005FF804460D4608E0032622462B4600206D
:105540003B49FBF755F804460D4622462B461046CC
:105550001946FAF7DBFF8B46824602460B46FAF7FE
:10556000D5FF07460246334888460B460621784455
:10557000FFF736F952465B46FAF7C8FF82462E48D7
:105580008B463A46434605217844FFF729F93A46C7
:105590004346FAF7BBFF02460B46002E50465946DB
:1055A0000CDAFAF70CFF22462B46FAF7AFFF01B0F0
:1055B00022462B46BDE8F04FFAF7A5BFFAF7FFFEEB
:1055C00022462B46FAF7A2FF1C4A7A4402EBC60396
:1055D000D3E90023FAF794FF22462B46FAF790FF0F
:1055E000174A7A4402EBC603D3E90023FAF78BFF8C
:1055F000009A002AB8BF81F00041BDE8F88F000092
:10560000000010440000F07F182D4454FB21F93FA6
:10561000FB21F9BF0000DC3F0000203E0000F33F0B
:105620000000F03F0000E63F008003400000F83F2C
:105630000000F0BF5633000014330000B232000007
:105640007A3200002DE9F04D9446CCF1000423F0AD
:1056500000464CEA0404594F46EAD4749A468846F8
:1056600021F00042BC4206D8454240EA050442EA25
:10567000D474BC4204D9BDE8F04D6246FFF711B9BD
:10568000AAF14055A5F17F6555EA0C040BD0022420
:1056900004EAAA744A4DDFF82CE144EAD87452EACD
:1056A000000B04D00CE0BDE8F04DFFF7BBBE002CB2
:1056B00014BF012CBDE8F08D022C30D0032C32D069
:1056C00056EA0C0B0AD0BE4220D1BA4209D126F0CC
:1056D000804622F080423346114617E000291ADB4B
:1056E00025E0DFF8E4B0FB44002C04BFDBE9000157
:1056F000BDE8F08D012C02BFDBE9000181F0004123
:10570000BDE8F08D022C0AD0032C0CD0BA4212D185
:10571000B8F1000F0BDA2A482C49BDE8F08D284675
:105720002B49BDE8F08D28467146BDE8F08D244830
:105730002849BDE8F08D921B12153C2AC4BF204FAA
:10574000244E10DCBAF1000FBEBF12F13C0F00274F
:105750003E4608DB6246FAF74BFF21F00041FFF7B7
:1057600061FE07460E4694B1012C08BF86F0004644
:105770000DD0194A194B022C3846314615D0FAF78C
:10578000BFFE2A46BDE8F04D114BFAF7B9BE002224
:10579000134638463146FBF70BF804BF0220FFF7EB
:1057A000A7F838463146BDE8F08DFAF7A9FE2A463B
:1057B000BDE8F04D064BFAF7A6BE00000000F07FF2
:1057C000182D4454FB2109C00E320000FB21F9BF03
:1057D000FB210940FB21F93F075C143326A6A13CBD
:1057E00010B5044600224FF400510648FBF700FEB6
:1057F000002005490880054804600520044909681F
:10580000486310BD001801405001002054010020E1
:105810003807002010B50446012251030648FBF763
:10582000E7FD00200549088005480460052005497A
:105830000968486310BD00000018014050010020B5
:1058400054010020380700202DE9F04F9BB0054699
:105850000E4605F16C00FAF748FFCDE91201A6F1FA
:105860006B00FAF742FFCDE91001DDE91223FFF7E3
:10587000E9FE714A714BCDE91401FAF747FE07467C
:10588000FAF7C6FF19901998FAF74DFF1890189873
:10589000FAF72BFF6A4A6B4BCDE91201FAF7A8FE23
:1058A0000022694BCDE91401FAF72DFE0746FAF7FD
:1058B000AFFF17901798FAF736FF8146B9F1000F3E
:1058C00001DC4FF00009A6F16B00FAF70EFF002291
:1058D0004FF08043CDE9040101F09EFE074600220F
:1058E0005A4BFAF785FECDE9080105F16C00FAF78D
:1058F000FCFE074600224FF0804301F08DFE00229F
:10590000524BCDE90401FAF773FECDE90601DDE95A
:105910000823FAF754FDCDE90A0102F0C8FC02465B
:105920000B46CDE90C0100204949FFF78BFECDE97C
:105930001001A6F16B00FAF7D8FE074600224FF0DF
:10594000804301F069FE0022404BCDE90001FAF7E7
:105950004FFECDE9040105F16C00FAF7C6FE0746DB
:1059600000224FF0804301F057FE0022374BCDE973
:105970000001FAF73DFECDE90201DDE90423FAF763
:105980001EFD0022334BCDE90601FAF718FDCDE9E3
:10599000080102F08CFC02460B46CDE90A0100200A
:1059A0002A49FAF725FECDE90C01FFF7FDFBCDE909
:1059B0000E01DDE91023FAF7A3FD1F4A1F4BCDE9C5
:1059C0001201FAF7A3FDCDE91401FAF721FF82468F
:1059D0005046FAF7A8FE16901698FAF786FE4FF092
:1059E00033321D4BCDE91201FAF702FE00221B4BA8
:1059F000CDE91401FAF7E3FC0746FAF709FF8346FD
:105A00005846FAF790FE0446B9F57A7F01DB4FF469
:105A10007A79002C00DC0024B4F57A7F01DB4FF4A6
:105A20007A74A2B21FFA89F04FF4E07102F042FBDF
:105A30001BB0BDE8F08F0000E79AD56194A94C40F7
:105A40009A9999999999C93F00888C4000003940EA
:105A500000003E4000208C403333D33F00D07940DB
:105A60002DE9F04F9BB005460E4605F13200FAF7DE
:105A70003CFECDE91201A6F18000FAF736FECDE931
:105A80001001DDE91223FFF7DDFD714A714BCDE90D
:105A90001401FAF73BFD0746FAF7BAFE1990199878
:105AA000FAF741FE18901898FAF71FFE6A4A6B4BF6
:105AB000CDE91201FAF79CFD0022694BCDE91401F2
:105AC000FAF721FD0746FAF7A3FE17901798FAF7A1
:105AD0002AFE8146B9F1000F01DC4FF00009A6F162
