:020000040800F2
:100000007808002049010008F31F0008551D00086A
:10001000F11F000811080008C126000800000000B8
:100020000000000000000000000000007B2200082B
:100030002108000800000000292200087D22000895
:100040006301000863010008630100086301000800
:1000500063010008630100086301000863010008F0
:1000600063010008630100086301000863010008E0
:100070006301000815080008630100086301000817
:1000800063010008630100086301000863010008C0
:1000900063010008630100086301000863010008B0
:1000A000E122000863010008630100086301000801
:1000B000ED220008630100086301000863010008E5
:1000C0006301000863010008630100086301000880
:1000D000630100089D260008A9260008B52600082F
:1000E0006301000863010008630100086301000860
:1000F0006301000863010008630100086301000850
:10010000630100086301000863010008630100083F
:10011000630100086301000863010008630100082F
:10012000630100086301000863010008630100081F
:10013000DFF810D000F0CEFA004800476D3200081A
:10014000AFF3008078080020064880470648004743
:10015000FEE7FEE7FEE7FEE7FEE7FEE7FEE7FEE777
:10016000FEE7FEE7DF22000831010008202A04DB59
:10017000203A21FA02F00021704721FA02F3D04020
:10018000C2F120029140084319467047D2B201E003
:1001900000F8012B491EFBD270470022F6E710B58C
:1001A00013460A4604461946FFF7F0FF204610BDE5
:1001B000421C10F8011B0029FBD1801A70472DE961
:1001C000F04791460F4680460446002614F8015B2E
:1001D0002DB100F073F80068405DC007F6D12B2DFB
:1001E00002D02D2D18D0641E4A463946204600F014
:1001F00069F827B13968A14201D1C7F800807105BB
:100200004FF002040BD54042002803DD02F0B8FA9B
:100210000460A007BDE8F08746F48066E4E70028A4
:10022000F8DA02F0ADFA04606FF00040F2E730B5A2
:100230000B46014600202022012409E021FA02F5A4
:100240009D4205D303FA02F5491B04FA02F528443E
:10025000151EA2F10102F1DC30BD2DE9F05F05466B
:10026000002092469B4688460646814640241BE075
:100270002846414647462246FFF778FF53465A46EE
:10028000C01A914110D311461846224600F034FAA4
:100290002D1A67EB01084F4622460120002100F08D
:1002A0002BFA17EB00094E41201EA4F10104DFDCFC
:1002B000484631462A464346BDE8F09F004870470D
:1002C000583500082DE9F05F824600780027154672
:1002D0008B460AF10104B946302801D09DB113E0E4
:1002E00014F8010B0127782803D0582801D045B114
:1002F0000AE00DB1102D07D10027102514F8010BCD
:1003000002E0082500E00A250026B0460EE005FBC5
:10031000080005FB06F1012701EB10461FFA80F8E3
:10032000B6F5803F00D3B94614F8010B294600F01A
:1003300004FA0028EBDABBF1000F05D00FB1641E00
:1003400000E05446CBF80040B9F1000F06D002F0AF
:1003500017FA02210160C81EBDE8F09F48EA064076
:10036000FAE72DE9FE4F804681EA0300C00F0C46F4
:10037000009021F0004123F00045B8EB0200A941B4
:1003800005D24046214690461C460B46024623F0C5
:100390000040104347D0270DC7F30A00C3F30A51AA
:1003A0000290401A019040286BDAC3F3130040F426
:1003B000801B0098924620B10023D2EB030A63EB26
:1003C0000B0B01985946C0F14002504600F094F9D9
:1003D00006460D4650465946019A00F09CF910EB2E
:1003E00008006141002487EA115284EAE7731A4346
:1003F00040D0009A62B3019A012A4FEA075215DCF5
:10040000001B61EB02014FF0004202EA0752CDE906
:100410000042001C41F5801132462B4600F0AAF93B
:1004200003B0BDE8F08F40462146F9E7001B61EBC1
:100430000201001C41F5801300185B412018A2F551
:10044000001747EB030140EAD570B6196D4111E082
:100450006D084FEA360645EAC0754FEA0752001BA1
:1004600061EB0201001C41F5801149084FEA3000A0
:100470000019514132462B4603B0BDE8F04F00F061
:100480006AB90098012240000023D0EB020263EB1E
:10049000E073009821464FEAE074B8EB000061EB8E
:1004A0000401E9E783F000435BE781F0004158E78E
:1004B0002DE9FE4F81EA030404F0004421F00041DD
:1004C00000944FF0000B23F0004350EA01045ED08B
:1004D00052EA03045BD0C3F30A54C1F30A552C4417
:1004E000A4F2F3340194A0FB0254C1F3130141F4CC
:1004F0008011C3F3130343F4801301FB024400FB98
:10050000034E840A970A44EA815447EA8357A4FBBE
:10051000076802958D0A05FB07854FEA932C04FBBB
:100520000C542705029D4FEA065847EA1637B5EBEB
:1005300008056EEB070C870E920E47EA811742EA18
:100540008312A7FB0201B6EB0B0164EB00042B0D39
:1005500043EA0C335E1844EB1C50DA465146E7FB85
:100560000201C5F313044FEA0B3343EA14534FEA75
:100570000432019C43EA0603A4F10C040294009C9B
:10058000CDE900B400F0F6F803B0BDE8F08F00202C
:100590000146F9E72DE9F04D81EA030404F0004B30
:1005A00021F0004514464FF0000A23F0004150EAC4
:1005B000050220D054EA01021DD0C5F30A570246B5
:1005C000C5F31303C1F31300C1F30A5640F48015B9
:1005D00043F48013A7EB0608101BD64608F2FD383B
:1005E00073EB050002D308F1010801E092185B41AA
:1005F000B8F1000F03DA00200146BDE8F08D0020BD
:100600004FF48011064684460EE0171B73EB050776
:1006100005D3121B63EB050306434CEA010C4908A2
:100620004FEA300092185B4150EA0107EDD152EADF
:10063000030012D082EA040083EA0501084305D0D2
:10064000101BAB4106D20122002306E000224FF02E
:10065000004302E06FF0010253101AEB06004CEB6E
:10066000085110EB0A0041EB0B01BDE8F04D00F022
:1006700072B8C1F30A52C1F3130140F2FF3341F4DF
:1006800080119A4202DA00200146704740F233435B
:100690009A42A2F2334202DC5242FFF767BD00F0F9
:1006A0002BB8000030B5041E71F1000404DB4FF0DC
:1006B0000044404264EB0101141E73F1000405DBA9
:1006C0001C464FF00043524263EB0403994208BFBB
:1006D000904230BD064C074D06E0E06840F0010353
:1006E00094E8070098471034AC42F6D3FFF724FD96
:1006F0005C3500087C350008202A04DB203A00FA2B
:1007000002F1002070479140C2F1200320FA03F368
:10071000194390407047202A06DBCB17203A41FA54
:1007200002F043EAE07306E041FA02F3D040C2F17E
:10073000200291400843194670473A2800D23038C9
:1007400020F02002412A01D3A2F13700884201D3D0
:100750004FF0FF30704710B5141E73F1000408DA33
:10076000401C41F1000192185B411A4301D120F075
:10077000010010BD2DE9F04D92469B4611B1B1FA32
:1007800081F202E0B0FA80F220329046FFF7B4FF27
:1007900004460F4640EA0A0041EA0B0153465A4616
:1007A000084313D0114653EA010019D0C8F14002A2
:1007B0005046FFF7DBFC05460E465046594642467A
:1007C000FFF79AFF084305D0012004E02046394690
:1007D000BDE8F08D0020054346EAE0762C43374320
:1007E0000A986305E40AA0EB08000022FD0A44EA27
:1007F00047540A3002D500200146E9E701051019E7
:100800006941DDE9084500196941BDE8F04DA2E7FD
:10081000FEE70000014800F0D9B8000034040020D1
:10082000704700EBC000C1004FF0E02041610022A2
:100830008261016941F0010101610169CB0701D0C9
:10084000C903FAD5016921F0010101618261704794
:1008500072B6FEE710B590F821100022022905D0EB
:100860000421816380F82020012010BD01680B68FD
:1008700023F00E030B6001680B6823F001030B608B
:1008800090F84030C46B012101FA03F3636080F8F3
:10089000211080F82020104610BD00002DE9F05FE7
:1008A00090F821100024022903D00421816301243F
:1008B00085E001680A6822F00E020A6001680A6891
:1008C00022F001020A603F4E3E4FB215DFF8F4C03D
:1008D000DFF8F090DFF8ECA0DFF8E8B0DFF8E4E054
:1008E0000168783F13011502ACF1640CA9F15009BD
:1008F000AAF13C0AABF1280BAEF1140E4FF48018AC
:10090000B14227D9B9420ED0614512D049451DD018
:10091000514518D0594518D0714501D1424615E0CE
:10092000294EB14201D1012210E0274E1436B142C6
:1009300001D110220AE0244E2836B14206D0224AC4
:100940003C32914201D11A4600E02A461E49091F55
:100950000A602BE0B94213D0614517D0494522D037
:1009600051451DD059451DD0714501D142461AE06F
:10097000B14202D14FF0807215E0134EB14201D165
:10098000012210E0104E1436B14201D110220AE0CB
:100990000D4E2836B14206D00B4A3C32914201D16D
:1009A0001A4600E02A46074980394A60012180F84A
:1009B0002110002180F82010416B01B188472046AA
:1009C000BDE8F09F80000240080402402DE9F05F7E
:1009D000C16B0A6801680B68046C4FF0040808FAE0
:1009E00004F8844D844E854FDFF814C2DFF814926A
:1009F000DFF814A2DFF814B2DFF814E218EA020FED
:100A000065D05FEA437862D50A68920603D40A6823
:100A100022F004020A60DFF8F0814FF4806201687E
:100A200008F1140813011402414524D9A9420DD03C
:100A3000B1420FD0B9421AD0614515D0494515D001
:100A4000514501D1120312E0594501D104220EE0B3
:100A5000714501D140220AE06D4D1435A94206D0FE
:100A60006B4A2832914201D11A4600E0224667497A
:100A7000091F0A6029E0A94213D0B14215D0B9423A
:100A800020D061451BD049451BD0514502D14FF4C0
:100A9000800217E0414502D14FF0806212E05945D3
:100AA00001D104220EE0714501D140220AE0584DE7
:100AB0001435A94206D0564A2832914201D11A462D
:100AC00000E022464B4908394A60C16A71E04FF0A4
:100AD000020808FA04F818EA020F70D05FEA837877
:100AE0006DD50A68920606D40A6822F00A020A60E6
:100AF000012180F82110DFF810814FF400720168A5
:100B000008F1140813011402414524D9A9420DD05B
:100B1000B1420FD0B9421AD0614515D0494515D020
:100B2000514501D1120312E0594501D102220EE0D4
:100B3000714501D120220AE0354D1435A94206D075
:100B4000334A2832914201D11A4600E022462F4909
:100B5000091F0A6029E0A94213D0B14215D0B94259
:100B600020D061451BD049451BD0514502D14FF4DF
:100B7000001217E0414502D14FF0007212E05945D2
:100B800001D102220EE0714501D120220AE0204D60
:100B90001435A94206D01E4A2832914201D11A4684
:100BA00000E02246134908394A60002180F82010ED
:100BB000816A00291CD0BDE8F05F0847FFE70825DF
:100BC000A540154214D01A0712D50A6822F00E0269
:100BD0000A6090F84020C36B012101FA02F25A60CA
:100BE000816380F82110002180F82010016BE0E77C
:100BF000BDE8F09F080002401C00024030000240A7
:100C000044000240580002406C00024008040240C8
:100C10001C04024030B560B11A4B026814219A429C
:100C200009D2194B1344B3FBF1F189000164174950
:100C30000AE0012030BD134B5B421344B3FBF1F1DA
:100C4000890001640F490839C163022180F821102D
:100C5000136843F6F0718B43F0E901142143D0E9A6
:100C600002452C432143046921434469214384699B
:100C7000214319431160002141630122427701772A
:100C8000084630BD08040240F8FFFDBF00000240E6
:100C900070B5044600F01CF90546601C02D00448FB
:100CA0000078044400F014F9401BA042FAD370BD50
:100CB0000C0000202DE9F84FDFF8C8910024A9F1BD
:100CC000040B23460F2709F1040AABF1040ED1E00F
:100CD0000125A54006EA0502AA4276D1DFF8A8C19F
:100CE0004E68A6EB0C0866452BD00DDC032E34D0E5
:100CF00005DC36B3012E19D0022E2FD11BE0112EA8
:100D000016D0122E2AD119E0B8F5881F19D006DCAA
:100D1000B8F5803F15D0B8F5801F1FD111E0B8F5A8
:100D2000001F0ED0B8F5041F18D10AE0CB6815E0FB
:100D3000CB681B1D12E0CB6808330FE0CB680C3387
:100D40000CE08B682BB1012B4FF0080303D04561F9
:100D500004E0042302E0056100E00023FF2A01D83B
:100D6000064601E000F104064FEA840501D9A5F129
:100D70002005D6F8008007FA05FC28EA0C0803FADB
:100D800005F548EA0508C6F800804D68ED0070D505
:100D90003E4DAE6946F00106AE61AD6924F0030632
:100DA00005F0010500953A4D06EB050CDCF80850FE
:100DB000A607360F07FA06F825EA0805DFF8D480FB
:100DC000404503D14FF0000825E052E0DFF8C8802D
:100DD000404502D14FF001081DE0DFF8C0804045DA
:100DE00002D14FF0020816E0DFF8B480404502D18E
:100DF0004FF003080FE0DFF8AC80404502D14FF020
:100E0000040808E0DFF8A080404502D14FF0050853
:100E100001E04FF0060808FA06F848EA0508CCF8A1
:100E200008804D68D9F80060ED024D4601D51643A3
:100E300000E096432E604D68DAF80060AD0255463A
:100E400001D5164300E096432E604D68DBF8006044
:100E5000AD035D4601D5164300E096432E604D6814
:100E6000DEF80060ED03754601D5164300E09643B9
:100E70002E60641C0A681646E2407FF429AFBDE884
:100E8000F88F00000804014000001110001002401B
:100E90000000014000080140000C0140001001402A
:100EA0000014014000180140001C01408068084007
:100EB00000D001207047C26821EA02030A4043EAD9
:100EC0000241016170470AB1016170470904FBE703
:100ED00001488068704700000C00002002488168CB
:100EE00002781144816070470C000020074810B55B
:100EF000016841F010010160032000F075F80F2037
:100F000000F006F800F024F8002010BD0020024098
:100F100070B50D4D04464FF47A712878B1FBF0F0AE
:100F20000A490968B1FBF0F000F0DCFA48B9102C6E
:100F300007D200222146501E00F036F800206C60D7
:100F400070BD012070BD00000C00002018000020C2
:100F50000C4808B5816941F001018161816901F0A6
:100F600001010091C16941F08051C161C06900F087
:100F7000805000900448416821F0E06141F0007128
:100F8000416008BD0010024000000140002809DB5C
:100F900000F01F02012191404009800000F1E02093
:100FA000C0F8001170470000F0B40E4B1B680C46EF
:100FB000C3F30223C3F10705042D00D90425191D2D
:100FC000072901D2002300E0DB1E012606FA05F105
:100FD000491E214099409E40761E16403143F0BC88
:100FE00001F0BEBB0CED00E0064900F00702086806
:100FF0004FF6FF03184040EA0220034A10430860FE
:10100000704700000CED00E00000FA052DE9F04704
:101010000F46050061D0434E306800F00700B8422B
:1010200009D2306820F0070038433060306800F0A3
:101030000700B84251D128683B4C810712D54007C0
:1010400003D5606840F4E06060602878000703D54D
:10105000606840F4605060606068A96820F0F0004B
:10106000084360602878C00728D06868012810D03D
:101070002168022810D0890700292EDA616821F042
:10108000030101436160FFF723FF804641F2883985
:101090000DE021688903EFE78901EDE7FFF718FF0D
:1010A000A0EB0801494502D90320BDE8F08760683C
:1010B000696800F00C00B0EB810FEFD1306800F0F0
:1010C0000700B8420BD9306820F007003843306081
:1010D000306800F00700B84201D00120E5E7287829
:1010E000400705D56068E96820F4E0600843606067
:1010F0002878000706D56068296920F4605040EA26
:10110000C100606000F038F86168084AC1F303115B
:10111000515CC8400649086006480068FFF7F8FEC1
:101120000020C2E70020024000100240BC3400084A
:101130001800002010000020044805490068496894
:10114000044AC1F30221515CC840704718000020D6
:1011500000100240CC340008044805490068496882
:10116000044AC1F3C221515CC840704718000020F6
:1011700000100240CC3400080E4A51680E4801F0BD
:101180000C03042B11D0082B0FD10C48C1F383435F
:10119000C903C05C0AD55168084AC1F34041921E98
:1011A000515C054A5043B0FBF1F070470449484395
:1011B000704700000010024000127A00AC340008B2
:1011C00000093D002DE9F84F040070D02078C04D93
:1011D000C00749D06868C0F38100012807D068685B
:1011E000C0F38100022809D16868C00306D52868C9
:1011F000800339D560680028E7D035E06068B0F535
:10120000803F0BD010B1B0F5A02F11D0286820F48A
:1012100080302860286820F4802002E0286840F4AC
:1012200080302860606890B1FFF752FE06460AE001
:10123000286840F480202860F0E700BFFFF748FEF0
:10124000801B642873D828688003F7D50CE0FFF76B
:101250003FFE064605E000BFFFF73AFE801B64280C
:10126000F0D828688003F7D420789A4E80074FF092
:1012700001094FF0000839D5686810F00C0F07D04D
:101280006868C0F38100022809D16868C00306D4E9
:101290002868800714D52069012808D110E020694A
:1012A000B0B1C6F80090FFF713FE074605E00AE16B
:1012B000FFF70EFEC01B0228C4D828688007F7D5A8
:1012C0002868616920F0F80040EAC10028600DE05C
:1012D000C6F80080FFF7FCFD074604E0FFF7F8FDC5
:1012E000C01B022823D828688007F7D4207800077D
:1012F0002CD57948A169D9B1C0F80090FFF7E8FD75
:10130000074604E0FFF7E4FDC01B02280FD8686A17
:101310008007F7D571484FF4FA510068B0FBF1F03F
:10132000009000BF0098411E0091FAD20EE080E0CC
:10133000C0F80080FFF7CCFD074604E0FFF7C8FDCA
:10134000C01B022875D8686A8007F7D42078400748
:1013500060D5E8690027C00008D4E86940F08050F3
:10136000E861E869012700F0805000905C4801685E
:10137000C90513D40168834641F480710160FFF709
:10138000A7FD824606E000BFFFF7A2FDA0EB0A0022
:1013900064284ED8DBF80000C005F5D5E0680128C8
:1013A0000AD008B1052813D0286A20F0010028626D
:1013B000286A20F0040002E0286A40F00100286258
:1013C000E06841F2883B98B1FFF782FD82460BE06E
:1013D000286A40F004002862EEE700BFFFF778FDBE
:1013E000A0EB0A0159455AD8286A8007F6D50CE0C7
:1013F000FFF76EFD824605E0FFF76AFDA0EB0A01EC
:1014000059454CD8286A8007F6D41FB1E86920F006
:101410008050E861E06988B36968C1F381010229FD
:1014200044D00228C6F8608004D0FFF751FD04467E
:1014300038E034E0FFF74CFD074604E0FFF748FDD5
:10144000C01B02282BD828688001F7D4206AB0F589
:10145000803F05D16868A16820F4003008436860C7
:10146000D4E908010843696821F4741108436860ED
:10147000C6F86090FFF72CFD044606E025E000BFAB
:10148000FFF726FD001B022809D828688001F7D540
:101490001BE000BFFFF71CFD001B022802D9032040
:1014A000BDE8F88F28688001F4D40EE00128F7D059
:1014B0006868226A00F48031914204D1616A00F4C4
:1014C0007010884201D00120EAE70020E8E7000020
:1014D00000100240000042428004424218000020F6
:1014E0000070004010B5401EB0F1807F01D3012094
:1014F00010BD4FF0E02460610F21601701F030F95A
:101500000020A06107202061002010BD70477047B7
:1015100070B590F83C20012A2CD0012480F83C4082
:10152000022280F83D2003685A689D6822F0700608
:101530000A6832435A60104B02689A420ED00F4B31
:101540009A420BD0B2F1804F08D00D4B9A4205D091
:101550000C4B9A4202D00C4B9A4204D1496825F0B8
:1015600080031943916080F83D40002180F83C10D1
:10157000084670BD022070BD002C014000340140BF
:101580000004004000080040000C004010B50400BA
:1015900003D094F83D0010B107E0012010BD0020F9
:1015A00084F83C00204600F01FF8022084F83D003B
:1015B000211D206800F0A0FE012084F8460084F878
:1015C0003E0084F83F0084F8400084F8410084F82D
:1015D000420084F8430084F8440084F8450084F80D
:1015E0003D00002010BD000008B5154A01681548EF
:1015F00091420ED1816941F40061816180690022CC
:1016000000F40060009005211820FFF7CDFC1820A1
:1016100010E0B1F1804F11D1C16941F00101C16108
:10162000C069002200F00100009011461C20FFF765
:10163000BBFC1C20BDE80840FFF7A8BC08BD0000AB
:10164000002C01400010024070B5044690F83C00A8
:101650000025012817D0012684F83C60022084F878
:101660003D002068826822F0770222F47F42826087
:101670000868502838D00DDC20284FD005DC90B306
:10168000102811D14AE0022070BD302846D04028F1
:101690000AD13BE060282FD070280DD0B0F5805FD4
:1016A00003D0B0F5005F12D0012584F83D60002022
:1016B00084F83C00284670BDCB68D1E90121206840
:1016C00000F068FE2068816841F0770109E0CB688E
:1016D000D1E90121206800F05DFE2068816841F4B5
:1016E00080418160E1E719E0CA684968206800F03C
:1016F00063FE5021206806E0CA684968206800F04F
:101700006CFE6021206800F04FFECEE7CA68496891
:10171000206800F051FE40212068F4E7226801466D
:101720001046F0E770472DE9F04104460068C668AE
:1017300005694FF00007A90713D5B10711D5F91EA8
:10174000016101202077206880698007204602D04F
:10175000FFF7E8FF04E000F07EF8204600F07CF898
:101760002777680716D5700714D521686FF0040035
:101770000861022020772068806910F4407F2046AD
:1017800002D0FFF7CFFF04E000F065F8204600F03C
:1017900063F82777280715D5300713D521686FF030
:1017A00008000861042020772068C069800720466F
:1017B00002D0FFF7B7FF04E000F04DF8204600F03C
:1017C0004BF82777E80616D5F00614D521686FF098
:1017D00010000861082020772068C06910F4407F5D
:1017E000204602D0FFF79EFF04E000F034F82046C8
:1017F00000F032F82777E80708D0F00706D0216814
:101800006FF001000861204600F028F8280608D58E
:10181000300606D521686FF0800008612046FFF78A
:1018200075FE680608D5700606D521686FF0400081
:101830000861204600F026F8A8060AD5B00608D5AB
:1018400021686FF0200008612046BDE8F041FFF7F5
:101850005EBEBDE8F08170477047000007498842CE
:101860000BD107480178012907D14168491C416023
:10187000962902D3002101704160704714030020B3
:10188000000000207047704770470000F8B50168FD
:1018900004460868CA684B6910F00F0F4FF0000546
:1018A00059D003F0010602F49077374365D0C107A1
:1018B00005D0D10503D5616C41F001016164410798
:1018C00005D5D90703D0616C41F00201616481073D
:1018D00005D5D90703D0616C41F0040161640107AB
:1018E00007D502F02001314303D0616C41F00801BB
:1018F0006164616C00293AD0800604D5900602D557
:10190000204600F0F2FD20684069616CC0F3801051
:10191000090700D460B3204600F0C0FD206840698C
:10192000400621D52068143050E8001F21F0400106
:1019300040E80012002AF5D1E06BA8B16D4941637F
:10194000E06BFEF7ABFF002811D0E06B416B01B0FC
:10195000BDE8F040084783060FD593060DD5204615
:10196000BDE8F84000F0C1BD2046FFF78DFFF8BD8F
:101970002046FFF789FF6564F8BD266B2023012E02
:101980007CD1C6067AD5D60678D508684868009016
:1019900048694FF00206400640D5E16B0868406890
:1019A0000004000CE8D0A28D8242E5D9E085886968
:1019B00020282DD020680C3050E8001F21F48071C1
:1019C00040E80012002AF5D12068143050E8001FCA
:1019D00021F0010140E80012002AF5D120681430FE
:1019E00050E8001F21F0400140E80012002AF5D124
:1019F00084F84230256320680C3050E8001F21F045
:101A0000100140E80012002AF5D1E06BFEF722FF3A
:101A10006663A08DE18D401A81B22AE0A08DE18D30
:101A2000401A81B2E08D0028A6D00029A4D02268F7
:101A30000C3252E8000F20F4907042E80007002FAB
:101A4000F5D12068143050E8002F22F0010240E860
:101A50000027002FF5D184F84230256320680C3030
:101A600050E8002F22F0100240E80023002BF5D1AF
:101A700066632046FFF707FFF8BDFFE705062BD595
:101A8000150629D594F841002128F5D1A068B0F5B4
:101A9000805F01D12069B0B1206A411C21622168B8
:101AA00000784860E08C401E0004000CE084E3D124
:101AB0002068C16821F08001C1602068C16841F0E0
:101AC0004001C160D8E7206A0088C0F30800486080
:101AD000206A801C2062E5E74006CDD55006CBD5B4
:101AE000CA68204622F04002CA6084F8413000F003
:101AF00030F9C1E78D24000870B5040004D094F8D3
:101B00004100002510B106E0012070BD84F840506E
:101B1000204600F023F8242084F841002068C168A2
:101B200021F40051C160204600F040FD20680169A9
:101B300021F4904101612068416921F02A0141614D
:101B40002068C16841F40051C1606564202084F8B8
:101B5000410084F842006563002070BDF0B585B097
:101B600000240094019402940394054602684E48B0
:101B7000DFF830C1022103234C4E0715624525D101
:101B8000826942F480428261826902F48042049256
:101B9000826942F0040282618069039300F00400CC
:101BA00004900802CDE9000169463046FFF782F84B
:101BB000CDE90074694630460294FFF77BF80022B5
:101BC00001212520FFF7F0F9252029E0DFF8E0C00A
:101BD000624529D1C26942F40032C261C26902F48D
:101BE00000320492826942F00402826180690393A8
:101BF00000F0040004900420CDE90001694630465D
:101C0000FFF758F80820CDE90004694630460294F1
:101C1000FFF750F8002202212620FFF7C5F9262001
:101C2000FFF7B4F905B0F0BD224EB242FAD1C26955
:101C300042F48022C261C26902F480220492826965
:101C400042F0080282618069CDE9007100F008006D
:101C5000CDE90330184E69463046FFF72BF8F014F3
:101C6000CDE90004694630460294FFF723F8144E8C
:101C70001248C6E900048020C6E90240346174615C
:101C8000B4613046F461FEF7C5FF08B1FEF7E0FD30
:101C9000EE630022032127207562FFF785F92720D4
:101CA000BEE700000038014000100240000801407B
:101CB0000044004000480040000C01403000024059
:101CC0003404002090F84230202B01D002207047CD
:101CD00021B11AB10023036300F0C4BC0120704796
:101CE00010B50068094988420FD10948007801F011
:101CF000BFFB012206490748FFF7E4FF064880883A
:101D0000142802D905490120087010BD003801408F
:101D1000080000205C030020B00000200900002023
:101D200090F84130202B01D00220704779B172B178
:101D300001628284C28400214164212180F8411023
:101D40000068C16841F08001C16000207047012037
:101D500070477047FEE70000094808B5416941F047
:101D6000010141614069002200F00100009011462C
:101D70000D20FFF719F9BDE808400D20FFF706B95F
:101D8000001002402DE9F04786B000253748009545
:101D9000019502950395816941F020018161816976
:101DA00001F020010491816941F0040181618169A0
:101DB00001F004010491816941F0080181618069A9
:101DC000DFF8AC9000F00800049000224FF4D871C6
:101DD0004846FFF778F8DFF89C8000220121404652
:101DE000FFF771F8DFF890A0002204215046FFF7BA
:101DF0006AF801241020CDE900040327CDE9024749
:101E000069464846FEF756FFA020CDE900040226A9
:101E1000CDE9024669464846FEF74CFF4020CDE931
:101E20000005694602944846FEF744FFCDE90247A3
:101E30000094694640460194FEF73CFF0096CDE9C8
:101E4000015469464046FEF735FF20028DE87100D7
:101E500069464846FEF72EFF04208DE8710069466A
:101E60005046FEF727FF06B0BDE8F087001002409D
:101E700000080140000C01400014014010B586B07C
:101E80000024174800940194029403940494134985
:101E90000594016041F61F41C0E90114C721C0E962
:101EA000031444618461FFF771FB08B1FEF7D0FCB5
:101EB0004FF48050009069460948FFF7C5FB08B110
:101EC000FEF7C6FC049404A905480594FFF720FB1F
:101ED000002801D0FEF7BCFC06B010BD002C01406C
:101EE000CC02002010B586B000241648009401945E
:101EF0000294039404944FF080410594016041F6EC
:101F00001F41C0E90114C721C0E903148461FFF730
:101F10003DFB08B1FEF79CFC4FF4805000906946F1
:101F20000848FFF791FB08B1FEF792FC049404A95E
:101F300004480594FFF7ECFA002801D0FEF788FC6E
:101F400006B010BD140300200C4810B50A4901600A
:101F50004FF416514160002181600C22C160C0E93C
:101F600004128161C161FFF7C7FD002803D0BDE8FD
:101F70001040FEF76DBC10BD003801405C0300202E
:101F80000C4810B50A4901604FF416514160002118
:101F900081600C22C160C0E904128161C161FFF758
:101FA000ABFD002803D0BDE81040FEF751BC10BDCA
:101FB00000440040A40300200C4810B50A49016009
:101FC0004FF416514160002181600C22C160C0E9CC
:101FD00004128161C161FFF78FFD002803D0BDE8C5
:101FE0001040FEF735BC10BD00480040EC03002057
:101FF000FEE7FEE71FB519A1D1E90001CDE9020115
:1020000000200090019000F06DFB012000F072FBB9
:10201000002000F057FB052202A9302000F0D6F87E
:1020200005226946102000F05DF89DF80000112897
:102030000FD19DF8010022280BD19DF80200332812
:1020400007D19DF80300442803D19DF804005528CA
:1020500002D0012004B010BD0020FBE71122334460
:10206000550000002DE91040FFF7C4FF0028FBD108
:10207000BDE81040AFF3008010B5002000F022FB57
:102080002021312000F0BEF8FF21E22000F0BAF854
:1020900005221349302000F099F811490522491D05
:1020A0002A2000F093F80121212000F0ABF8012153
:1020B000222000F0A7F81A21242000F0A3F8002124
:1020C000252000F09FF80F21262000F09BF80F211B
:1020D000202000F097F8BDE81040012000F0F2BA8F
:1020E000A03400082DE9F041044615460F460020B3
:1020F00000F000FB204600F0A5F80646002405E0AD
:10210000FF2000F09FF83855641CE4B2AC42F7D3CE
:10211000012000F0EFFA3046BDE8F08110B504462A
:10212000002000F0E7FA204600F08CF8FF2000F0D5
:1021300089F80446012000F0DDFA204610BD10B5F4
:102140000446002000F0BEFA0E21202000F05AF8CC
:10215000012000F0B7FA0F20FEF763FB204600F0E5
:102160000DF8002000F0AEFA0F21202000F04AF810
:10217000BDE81040012000F0A5BA000010B50446EB
:10218000002000F09FFA20222146A02000F01EF837
:10219000012000F097FA00BF00F048F80128FBD0BA
:1021A0000720FFF7BBFF04460146272000F02AF86E
:1021B000E00605D5FF21E12000F024F8102010BD35
:1021C000A00601D5202010BDFF2010BD2DE9F04153
:1021D000044616460D46002000F08CFA204600F01A
:1021E00031F80746002405E015F8010B00F02AF845
:1021F000641CE4B2B442F7D3012000F07BFA384605
:10220000BDE8F08170B504460D46002000F072FA7A
:10221000204600F017F80446284600F013F8012085
:1022200000F068FA204670BD7047000002210148A6
:10223000FEF73CBE000C014040210148FEF736BECF
:102240000008014070B505460024280601D501208C
:1022500000E0002000F03EFA6806050E012000F0C4
:1022600041FAFFF7E9FF0543002000F03BFA641C48
:10227000E4B2082CE9D3284670BD7047FEF72EBEA5
:1022800030B58FB028216846FDF787FF14210AA8D2
:10229000FDF783FF01210804CDE90010002402941A
:1022A00002250491CDE907504FF4E01009906846EB
:1022B000FEF788FF08B172B6FEE70F20CDE90A05E8
:1022C0004FF48060CDE90C4002210AA80E94FEF77D
:1022D0009DFE002801D072B6FEE70FB030BD7047FA
:1022E0000148FFF720BA0000CC0200200148FFF7A8
:1022F0001ABA000014030020F0B50268204C214DEA
:10230000214E224F224B4FF0804CA04209D09842E0
:1023100007D0604505D0A84203D0B04201D0B842F2
:1023200004D122F0700E4A6842EA0E02A04209D09F
:10233000984207D0604505D0A84203D0B04201D0F2
:10234000B84203D122F44075CA682A434D6922F08D
:1023500080022A4302608A68C2620A688262A042DE
:1023600001D0984201D109690163012141610169EC
:10237000C90703D0016921F001010161F0BD00002E
:10238000002C01400004004000080040000C004008
:102390000034014010B5846842EA032224F47F44EB
:1023A0000A432243826010BD826822F070020A4311
:1023B00042F007018160704710B5036A046A24F097
:1023C00001040462846924F0F00444EA021423F056
:1023D0000A020A438461026210BD10B5036A046AEE
:1023E00024F010040462846923F0A00324F47044F0
:1023F00044EA023243EA01118261016210BD000029
:102400000FB4FF2070B59CB000248DF8680021AB9C
:1024100065216846209A00F089F91B4D6E460DE053
:102420003119641CE4B201221748FFF779FC00BFA0
:1024300095F841002028FBD1642C04D26846FDF7B2
:10244000B7FEA042ECD801221AA90F48FFF768FC9A
:1024500095F841002028FBD101221AA90A48FFF76C
:102460005FFC00BF95F841002028FBD101221AA98A
:102470000548FFF755FC00BF95F841002028FBD127
:102480001CB070BC5DF814FBEC03002010B5406A72
:102490000021C185C184FFF7F7F910BD01680C3137
:1024A00051E8002F22F4907241E80023002BF5D16F
:1024B0000168143151E8002F22F0010241E80023A5
:1024C000002BF5D1016B012909D101680C3151E8CC
:1024D000002F22F0100241E80023002BF5D120212B
:1024E00080F8421000210163704708B590F842104F
:1024F000222901D0022008BD82684FF480539A42FD
:1025000001D1016921B1816A9A421BD04AB10AE026
:102510000268816A5268C2F308020A80816A891CD3
:1025200008E0026972B10268526802F07F020A7024
:10253000816A491C8162C18D491E0904090CC1854B
:1025400003D01BE002685268F1E70168CA6822F014
:102550002002CA600168CA6822F48072CA600168F9
:102560004A6922F001024A61202180F842100021CC
:102570004163026B012A03D0FFF7B2FB002008BDC4
:10258000016301680C3151E8002F22F0100241E88C
:102590000023002BF5D101680A68D20602D50A682B
:1025A00049680091818DFFF76EF9E7E770B5044641
:1025B00000680169E26821F4405111430161216919
:1025C000A0680843616908432168CA6841F20C6346
:1025D0009A430243CA6020684169A26921F44071AC
:1025E000114341611E492068884202D1FEF7B4FDC3
:1025F00001E0FEF7A1FD00EBC00101EB00126068F5
:1026000064218000B2FBF0F3B3FBF1F36FF0180626
:102610007343B2FBF0F5B2FBF0F605EB8305322312
:1026200003EB0515B5FBF1F5B6FBF1F605F0F0058A
:1026300005EB0615B2FBF0F6B2FBF0F0B0FBF1F0E3
:102640006FF01802504306EB800003EB0010B0FB64
:10265000F1F0216800F00F002844886070BD000090
:102660000038014081628285C285002141642221B7
:1026700080F84210016921B10168CA6842F4807291
:10268000CA6001684A6942F001024A610068C16893
:1026900041F02001C1600020704700000148FFF7B1
:1026A000F5B800005C0300200148FFF7EFB8000018
:1026B000A40300200148FFF7E9B80000EC03002064
:1026C000FEE70000024601210148FEF7FCBB0000C6
:1026D000000C0140024680210148FEF7F4BB0000D7
:1026E00000080140024620210148FEF7ECBB000033
:1026F00000080140024610210148FEF7E4BB00003B
:10270000000801400FB4084B10B504A902AA0398B1
:1027100000F00CF9044602A9002000F095FC2046C8
:1027200010BC5DF814FB0000493000087CB50C00BB
:102730001D461646014601D0601E00E00020CDE98E
:102740000010064B6A462946304600F0EFF8002C90
:1027500002D0009A002111707CBD000033300008C7
:102760000907090E002804DB00F1E02080F80014BE
:10277000704700F00F0000F1E02080F8141D704752
:10278000004870471C00002002E008C8121F08C162
:10279000002AFAD170477047002001E001C1121FE2
:1027A000002AFBD1704700002DE9FF5F82B00021B5
:1027B000DDE90430020DDDF840B0034318D044F6E3
:1027C0001050A2F2FF3242431514119801281FD075
:1027D000A5EB0B00401C5FEA000A4FF000064E4FCD
:1027E000DFF83891B046504615D5CAF1000413E021
:1027F000119801244AA3012801D16FEA0B01029824
:10280000119AC0E90031C0E9024206B0BDE8F09F6C
:10281000CBF10000DFE704460021404A491842EBB3
:102820000450CDE9001012E0E00707D032463B46E5
:1028300040464946FDF73CFE8046894632463B46C7
:1028400010461946FDF734FE06460F466410002C6C
:10285000EAD1DDE90401DDE90023BAF1000F06DA6F
:10286000FDF726FE42464B46FDF722FE05E0FDF74A
:1028700091FE42464B46FDF78DFE04460E46002271
:10288000284BFDF70FFF03D84FF0FF30014607E05C
:102890000022254B20463146FDF763FDFDF7E9FE9A
:1028A000102409E0002C0ADB0A220023FDF7D5FCE6
:1028B000039B30321A55641E50EA0102F2D1641CA7
:1028C000039AC4F111031444119A012A03D001227E
:1028D00008430DD10AE0084304D000204FF0110B4B
:1028E000119072E7A3EB0B056D1E0DE05B4504DD57
:1028F0004FF0000205F1010504E003DA4FF0000299
:10290000A5F10105002AECD002981199C0E9023125
:10291000C0E9004579E70000000014400000F03FE6
:10292000300000000000F0430000E03F2DE9FF4FC1
:1029300095B09A46884606460025EEE1252877D1CF
:1029400000242746F94A0121039400E0044316F8C5
:10295000013F203B01FA03F01042F7D130782A28DA
:1029600011D06FF02F033078A0F13002092A16D869
:10297000039A44F0020402EB820203EB4202104489
:10298000761C0390EFE758F8042B0392002A03DA31
:10299000504244F40054039044F00204761C307812
:1029A0002E2816D116F8010F44F004042A280DD061
:1029B0006FF02F023078A0F13003092B09D807EB14
:1029C000870302EB4303C718761CF3E758F8047B30
:1029D000761C30786C280FD006DC4C2817D068287D
:1029E0000DD06A2814D104E0742810D07A280FD1B1
:1029F0000DE044F400140AE044F4801401E044F4CF
:102A000040147278824202D104F58014761C761C40
:102A1000307866280BD013DC582877D009DC0028E2
:102A200075D04528F6D04628F4D047281AD193E12E
:102A300018E0632835D0642879D0652812D18BE15D
:102A4000702873D008DC6728F1D069286FD06E2811
:102A50000DD06F2806D1ACE073282CD0752874D027
:102A6000782853D05246179990476D1C54E1C4F30F
:102A70000250022809D003280DD0D8F800100428ED
:102A80000DD00D6008F1040846E1D8F80010EA17EF
:102A9000C1E90052F6E7D8F800100D80F2E70D709A
:102AA000F0E718F8041B8DF8001000208DF80100E5
:102AB000EB46012003E058F804BB4FF0FF306107FC
:102AC0004FF0000102D40DE009F101018946B9423D
:102AD0000FDA8145F8DB1BF809100029F4D108E072
:102AE00009F1010189468142FADB1BF8091000292E
:102AF000F6D103985346A0EB090721463846179AAA
:102B000000F080FA284400EB090507E044E008E102
:102B10000DE01BF8010B524617999047B9F10109D6
:102B2000F7D2534621463846179AF2E039E00A2197
:102B3000C4F302524FF0000B0091022A06D058F85D
:102B4000040BC117032A09D00AE023E008F10700AB
:102B500020F00702F2E80201904605E000B2C1173A
:102B6000042A01D140B2C117002906DA0A46002121
:102B7000404261EB02012D2202E0220504D52B2206
:102B80008DF80420012203E0E20701D02022F7E7BC
:102B9000914657E00A2100E010214FF0000B009110
:102BA0000BE010214FF0000B44F0040408270091C3
:102BB00003E008204FF0000B0090C4F30252022AF9
:102BC00005D058F8040B0021032A08D008E008F1CA
:102BD000070020F00702F2E80201904603E080B20D
:102BE000042A00D1C0B24FF0000922072AD532785A
:102BF000702A07D0DDF800C08CF0100C5CEA0B0CDA
:102C000005D00EE040228DF80420012208E050EAB1
:102C1000010306D030238DF804308DF80520022200
:102C20009146009B83F0080353EA0B030AD150EA54
:102C3000010201D1620705D530228DF804204FF042
:102C400001097F1E3278582A04D039A20C920CAAAE
:102C500002920BE03BA2F9E75B46009AFDF7FDFA12
:102C60000C9B9B5C029A521E0292137050EA010266
:102C7000F2D1029804A9081A00F1200B600702D5CE
:102C800024F4803400E001275F4502DDA7EB0B0050
:102C900000E0002000EB0B01009003984944401A2B
:102CA0000390E00306D453462146179A039800F098
:102CB000A9F90544002706E001A85246C05D17990E
:102CC00090476D1C7F1C4F45F6DBE0030CD5534647
:102CD0002146179A039800F095F9054404E0302046
:102CE0005246179990476D1C0099481E0090002984
:102CF000F5DC08E00298029952460078491C0291DE
:102D0000179990476D1CBBF10001ABF1010BF1DC91
:102D10005BE100F065F90544761C307800287FF40B
:102D20000DAE19B02846BDE8F08F0000092801005B
:102D30003031323334353637383961626364656631
:102D400000000000303132333435363738394142F3
:102D50004344454600000000600700D4062708F100
:102D6000070020F00700F0E80223804603F0004C43
:102D70005FEA0C0001D097A009E0200501D596A0DC
:102D800005E0E00701D095A001E0AFF24C00139000
:102D9000307823F0004365280CD006DC452809D0A4
:102DA00046281DD047287FD13BE0662818D06728E9
:102DB0007AD136E00021112F01DB112000E0781CD0
:102DC000CDE9000104A90CA8FFF7EEFCDDE90D0137
:102DD0000C9A4FF0000B07F10109109200914EE0A0
:102DE0004FF000400097CDE9011004A90CA8FFF7AF
:102DF000DBFCDDE90D020C9B0F994FF0000B9146B7
:102E00001093009211B9791C00EB0109B7EB09008E
:102E100003D4C0F1FF3B07F10109A9EB07000190C2
:102E200042E0012F00DA01270021112F01DD1120DE
:102E300000E03846CDE9000104A90CA8FFF7B4FC76
:102E4000DDE90D010C9A00914FF0000BB94610928C
:102E500021070FD4009A4A4503DA914601E0A9F10F
:102E60000109B9F1010F05DD109AA9F10101515CC9
:102E70003029F4D0B84202DA10F1040F03DA01214C
:102E8000CDE9011010E0002803DC8344A9EB000128
:102E900002E0411C494500DD8946A0EB0B00401CC7
:102EA00001904FF000400290200705D4019848455A
:102EB00002DB4FF0FF30019000208DF84B000298AC
:102EC0000DF14B07B0F1004F25D002200C902B20C4
:102ED0000D90029800280CDA404202902D200D90AF
:102EE00007E00A210298FDF7A2F93031029007F8B5
:102EF000011D0C99481E0C900029F2DC0298002854
:102F0000EFD1791E0D980870307800F0200040F065
:102F1000450007F8020D11A8C01BC01D02901398B0
:102F2000007800B1012000EB0901019801EBE0718C
:102F3000029801440398401A401E0390E00306D40F
:102F400053462146179A039800F05CF805441398FD
:102F5000007818B15246179990476D1CE00323D5AD
:102F600053462146179A039800F04CF805441BE09D
:102F7000BBF1000F07DB0098584504DD1098179946
:102F800010F80B0001E01799302052469047019845
:102F90000BF1010B401E05F10105019004D12E201B
:102FA0005246179990476D1CB9F10001A9F101092A
:102FB000DEDC05E017F8010B5246179990476D1CAF
:102FC0000299481E02900029F4DC53462146179AC4
:102FD00003989EE62D0000002B000000200000005A
:102FE0002DE9F041044600251E461746880404D406
:102FF00005E039462020B0476D1C641EF9D52846EF
:10300000BDE8F0812DE9F041044600251E469046BA
:10301000C80301D5302700E02027880404D505E047
:1030200041463846B0476D1C641EF9D52846BDE8B8
:10303000F0814A68002A06D00A68531C0B601070A1
:103040004868401E486070470A68531C0B60107047
:10305000704700000EB5024604A16846FFF752FB18
:10306000102200216846FDF7AAF80EBD2558000081
:10307000012807D0022807D0032807D104A000BFE9
:10308000FFF7BEB908A0FBE70DA0F9E77047000005
:1030900070616765302E6E25642E62636F3D363336
:1030A000343838FFFFFF000070616765302E6E25F1
:1030B000642E62636F3D32303136FFFFFF00000047
:1030C00070616765302E6E25642E62636F3D31300E
:1030D0003535FFFFFF0000004FF4FA5148434FF031
:1030E000E02148610020886101220A610A69D30752
:1030F00001D0D203FAD508618861704770B40D49D8
:103100008A88824213D900224FF4FA740BE08B882C
:103110006BB10D885B1E6D1CB5FBF4F604FB1655F8
:103120000D808B80521C8242F1DB70BC704770BCFA
:1031300000F002B8B0000020024800210180418068
:1031400081807047B000002070B5464C0025207883
:103150000128FCD1002000F00BF9052804D1132030
:1031600000F006F9072804D00120FFF7C7FF2570FB
:10317000EDE7002000F0FCF8052871D1132000F0E5
:10318000F7F807286CD1012000F0F2F8FFF762FF92
:10319000354C2070022000F0EBF8FFF75BFF607009
:1031A000032000F0E5F8FFF755FFA070042000F0C1
:1031B000DFF8FFF74FFFE070052000F0D9F8FFF7C8
:1031C00049FF2071062000F0D3F8FFF743FF60713C
:1031D000072000F0CDF8FFF73DFFA071082000F0B8
:1031E000C7F8FFF737FFE071092000F0C1F8FFF7DB
:1031F00031FF20720A2000F0BBF8FFF72BFF60724E
:103200000B2000F0B5F8FFF725FFA0720C2000F0AE
:10321000AFF8FFF71FFFE0720D2000F0A9F8FFF7ED
:1032200019FF20730E2000F0A3F8FFF713FF60735F
:103230000F2000F09DF8FFF70DFFA073102000F0A5
:1032400097F8FFF707FFE073112000F091F8FFF700
:1032500001FF2074122000F08BF8FFF7FBFE607472
:1032600070BD000009000020AA020020FDF73EFE0C
:10327000FFF706F8FEF786FDFEF76EFDFEF764FE2B
:10328000FEF77EFEFEF798FEFEF7F8FDFEF72AFE3B
:103290004FF4FA752C462A4640F24F21042000F0E4
:1032A00047F82046FFF718FF012214491448FEF79B
:1032B00009FDFEF7D7FEFFF73FFF00F029F800F009
:1032C00065F8104C00204FF4967620800E48FEF7EB
:1032D00036FF2846FFF700FF2088401C80B2208080
:1032E000B042F3D3094D4FF4807421462846FDF7D0
:1032F000E2FDC820FDF7CCFCF7E700000800002045
:103300005C0300200A000020AA02002000080140FF
:1033100010B5FFF719FF00F087F80448FEF70FFF1C
:10332000BDE810401420FFF7E9BE0000AA0200200B
:1033300030B41F2817D8002A15D00C4B55245C70C8
:103340001C7008249C700324DC7001241C715A71C9
:10335000120A9A71D8711972080A587230BC0A217F
:10336000184600F06FB830BC704700002000002005
:1033700005490A8810444FF4FA72B0FBF2F302FBDD
:103380001300084480797047B000002010B5254C28
:103390000021A079FFF76CFEE0790121FFF768FEBC
:1033A000207A0221FFF764FE607A0321FFF760FEB6
:1033B000A07A0421FFF75CFEE07A0521FFF758FEB2
:1033C00020780621FFF754FE60780721FFF750FEB2
:1033D000A0780821FFF74CFEE0780921FFF748FEAE
:1033E00020790A21FFF744FE60790B21FFF740FEA8
:1033F000207B0C21FFF73CFE607B0D21FFF738FEA0
:10340000A07B0E21FFF734FEE07B0F21FFF730FE9B
:10341000207C1021FFF72CFE607CBDE810401121BC
:10342000FFF726BEAA0200200020054901220B5CFE
:1034300003B90A54401CC0B21228F8D370470000E8
:10344000AA02002070B50C460546074E08E0306819
:103450004006FCD529466D1C01220448FEF760FC9D
:10346000641EE4B2F3D270BD00440040A403002007
:103470000A4910B58B884FF4FA7293420CD24C88EB
:103480008B1DE0544888401CB0FBF2F302FB130094
:1034900048808888401C888010BD0000B000002053
:1034A000FFFFFFFFEEFFFFFFFFEE01020203040537
:1034B000060708090A0B0C0D0E0F10100000000083
:1034C00000000000010203040607080900000000D4
:1034D0000102030400404040404040404040414120
:1034E00041414140404040404040404040404040D9
:1034F0004040404040050202020202020202020273
:10350000020202020220202020202020202020026F
:1035100002020202020290909090909010101010FF
:10352000101010101010101010101010101010109B
:10353000020202020202888888888888080808082F
:1035400008080808080808080808080808080808FB
:103550000202020240000000D53400087C35000859
:103560000000002020000000882700089C3500088B
:1035700020000020580800009827000800000000E4
:10358000000000000000000001000000100000002A
:0C3590000000000000127A0000000000A3
:0400000508000131BD
:00000001FF
